:400000000080002011000000D91A0000D91A000010B501F081FD0000F8B572B600248022494D21002C60D200484803F0F5FD80222100D200464803F0EFFDEE22454B120616
:400040001A6099230621444A1B041360434AC4201360434A80021360424A08271360424A424E1360424A13780B431370D823414A1B041360202240490A6040490860404931
:400080000A6080213F4A1160B0213F4AC903116080213E4A090211603D4A136012223D4B1A6002F0FBFD3C4802F0EAFE012002F001FE302002F088FC384A394B02211A600C
:4000C0008023FA20374ADB0533601368C0000B431360354A354B1A60354B1C602B688024BB432B6002F002FD324802F063FCC822314B52011A60314A314B24031A608022F5
:40010000304B12061A6040222F4B30491C60304B38001A6002F026FC380002F02BFC2D4B33602D4B1A001C6013682340FCD18021294A49021160032228490A6028490A60E0
:40014000284A1360F8BDC0466CF02E4000300F4000400F40000002400001024000500F4010500F4020500F4030500F400C020B4000700F40080004400001044008010440B0
:400180001801044000020440080204400C0204400803044030001040001BB7000600008004010B4078002E406A2D00007C002E4064F02E40DC0500000003014040FF008078
:4001C0000000014008010B4000010B40E12D0000040101400000014E10020B403000304030003140000E3F4010B5064C2378002B07D1054B002B02D0044800E000BF01233F
:40020000237010BD7812002000000000DC6C0100084B10B5002B03D00749084800E000BF07480368002B00D110BD064B002BFBD09847F9E7000000007C120020DC6C010096
:40024000A00B002000000000064B10B51B78032B06D10120044A13785840107002F068FA10BDC046D1240020A40B0020F8B5384C2378012B33D0032B68D102F00DFB354B0C
:40028000C0B21870002804D16278002A5ED01A7060701B78792B14D12F4803F041FD012200212E4B18780FF0B3F82D4B1880002804D02C4803F0B8FC01F09AFB022323709B
:4002C00044E06E2B07D1284803F02AFD0022234B11001878E7E7254803F022FD36E002F0DBFA1C4AC3B21370002B2FD0303B204E092B15D8C5B22B001E4F303B39681E4A7F
:400300004B43116838685B1813600A2102F0A0FF3378386001332800337002F03DFA02E0164803F0FDFC3378062B0FD1144803F0F7FC0A4B012218780F4B19680FF068F89D
:40034000074B18800028B9D00E48B3E7F8BDC0469412002042240020E06C0100D324002040240020FB6C0100226D01003D6D010051240020482400203C240020626D0100EF
:4003800062770100776D0100F7B562B602F0E8F93D4803F0C5FC012002F0BEF9012002F0C7F9012002F0BCFA384801F02FFC384B18800193002804D0364803F035FC01F06E
:4003C00017FB01F06BFB00F03BFF01F073FA3249022002F0E5FC022002F0EEFC012402222E4B2F4D1B789343012B2AD02B78023B012B26D8032004F009FC070002F049FD6C
:400400000600032F14D106F093FC04280BD102F0D1F9244B1B68DB0B23401B18002B0BD102F09EFB0AE006F083FC062806D1EEE706F07EFC022801D002F084FB300002F01F
:400440002CFD04F0FDFB2B78022B19D100F0E0FFFFF70CFF144B1B78002BC0D002F0AAF9104B1B68DB0B234018180028B7D101F021FC019B010018800C4803F0D5FBAEE7A5
:4004800001F020FAABE7C0469D6D01000905000040240020D56D01004902000094120020D124002008022440B4240020ED6D010037B5002001F070FC0E4B1880002805D07B
:4004C0000D4803F0B1FB01F093FA12E00B4803F0ABFB684604F0A2FB6B465C1D5D1E21780748013C03F0A0FBAC42F8D1054803F017FC37BD402400200F6E01002E6E010078
:400500004E6E01006277010037B504000D002C2800D142E151D8232800D1BBE01ED8042800D196E010D8022800D18DE000D98EE0012800D004E2B84803F0F2FBFFF7B8FF93
:40054000200002F0F5F8FFE1212800D184E000D98EE0B248052C00D1EFE1F1E1272800D1E0E013D8252800D197E000D917E1AC4C0522200003F047FBE0786278A3782178AE
:400580000090A84803F050FB042200E1292800D100E100D2E7E02A2800D0D1E1488802F0CDFF03F083FA00229F4B03F005F802000B009E4803F038FBC6E1502800D1B2E170
:4005C0001DD8422800D125E10ED8332800D19BE0412800D118E12D2800D0B1E10968944803F022FB0322D2E04C2800D184E14F2800D196E1432800D0A2E18E489DE1712806
:4006000000D1BDE00AD8572800D18EE1702800D192E1542800D093E187488EE182235B00984200D184E104D88448FA2C00D184E186E10623FF33984200D17BE101338048F8
:400640009C4200D179E17BE109787E487AE17E4873E109787D4875E1714C0522200003F0D2FAE078A378627821780090784856E0784803F055FB784803F052FB0122774BA6
:4006800077491A700023774A1360774A1160774A137059E10968764854E1764803F0C4FA297818292BD8080002F0BEFD0D0F131517191B1D1F2123292929292929292929FC
:4006C0002925292927006C4800E06C4803F028FB18E06B48FAE76B48F8E76B48F6E76B48F4E76B48F2E76B48F0E76B48EEE76B48ECE76B48EAE76B48E8E76B48E6E76B483C
:4007000003F092FA052242E0454C0522200003F07AFAE078A378627821780090644803F083FA11E1634C6448217803F07DFA63490B781B070CD020780EF07CFE604B188050
:40074000002808D05F4803F06FFA01F051F902E00522424B1A70012001F0DEFF012001F0E7FF00204DE00978574803F05DFAFFF79FFE002001F0D0FF012001F0D9FF3FE001
:400780000B885249002B00D051495248DAE0334B1A70D9E009785048D4E05048CDE0504803F0BEFA01F0F8F84E4B1B78042B1ED14D4803F0B5FA002001F0AEFF012001F0DA
:4007C000B7FF012002F0ACF8012401F0F3FF474B1B68DB0B23401B18002BF6D101F0E6F902F098F802F080F802F0E4F9ACE0032B00D0A9E0002001F09BFF012001F08CFF1B
:40080000012002F08DF89FE00A783948497803F00BFA99E0374890E0666E01007B6E01004C2400207B7201000000F43F19720100F6700100CA730100EA73010017750100F1
:40084000D2740100996E0100B26E0100CD6E0100E96E0100276F01004C6F010094120020A08601003C24002048240020512400207A6F0100AC6F0100D06F0100D66F010007
:40088000EC6F01000470010020700100397001005070010072700100897001009D700100B0700100C4700100DC700100EF7001004E710100D3240020AA710100980E0020C4
:4008C00040240020D0710100EE710100546E01005D6E01004F720100BE720100E272010008730100D124002032730100080224403E730100737301008989144803F094F9CF
:400900000023134C238023882A899A4207D96A681048D15C03F088F923880133F2E70E480BE00E4809E00E4807E049880D4809E00D4802E00D4800E00D4803F0F1F903E0A8
:4009400021000C4803F070F937BDC046937301004424002030810100627701000D7401002E7401004F74010087740100AC740100EF7401003675010010B5062813D802F0AB
:4009800053FC0406080A0C0E10000A480CE00A480AE00A4808E00A4806E00A4804E00A4802E00A4800E00A4803F03EF9094803F03BF910BD7475010085750100927501006C
:4009C0009E750100B6750100CC750100D2750100D8750100E4750100F0B501250A180A4E0A488A420FD008230C782700474040082F4201D0704080B2013BDBB26408002B1A
:400A0000F3D10131EDE7F0BD0884FFFFFFFF0000084B70B51B680400DB0408D50D18FFF7DBFF0100280001F0FBF90234E4B2200070BDC04684240020F8B5144B04001B687F
:400A40000E000025DB041ED5114803F0EDF8B288A31C934213D13368181901F0DCF931680700E0B2FFF7B8FF874204D0094803F057F9813507E0084803F052F903E007488F
:400A800003F04EF980252800F8BDC04684240020F4750100007601000D76010011760100F8B503004D38FF380C00052800D9BFE302F0C4FB44034603480340034203060085
:400AC0008878FFF759FFA04803F0AEF800239F4D62682B802B889188994207D912689C48D15C03F0A1F82B880133F1E7994803F017F9A378052B3ED0062B00D1B1E0032B48
:400B000000D014E361680920FFF796FF63680426186801F080F962688F4B1168188089788E4899701168C978D9701168097919711168497959711168897999710721126849
:400B400051561972127A5A7200231A002B80282B07D0C2568A4200D1002601339BB20122F5E7002A00D02B80002E00D1E0E27C4803F0D6F8DCE202227A4D7B482B7813432E
:400B80002B7003F051F863681B6818786870013803280BD802F048FB02040608734806E0734804E0734802E0734800E0734803F0B7F8734803F038F863681B685878012323
:400BC000A870704DEB70062849D802F02DFB040A1618300806006C48A7E26C48A5E26C48A3E26C4803F09CF8636800269B88022B00D89DE20523EB709AE2674800E0674821
:400C000003F08EF8664803F00FF863689A88052A03D005236348EB7087E21A68624B9178197001291BD1D1786048597005E1604803F076F85A4802F0F7FF63689A88072AE5
:400C4000E7D11A68584B91781970012907D1D1785279584859709A7002F0E6FF67E2474863E26168544F0B68544D1878012338700138AB701A2815D802F0D6FA0E1414121F
:400C8000141410141410141410141410141410141410141414181800022008E0032006E00B2004E002230020AB7000E00120AB78012B29D001222B4E2B48337813433370FA
:400CC00002F0B2FF387801381A2800D92CE202F0B5FA2D0021002B028100B7002B021F0113012B023D0131012B025B014F012B027A016E012B0299018D012B02BB01AC0112
:400D00002B02CE01D3010102FFF796FE061E00D00EE2CFE72A4803F003F82A4E2A48317802F082FF03232B703378FBE1274802F0F7FF636826481B685978224B197002F042
:400D400073FF0123EEE1C0461E760100442400203081010062770100542400204C7501002B760100961200203876010041760100597601007176010083760100A576010066
:400D8000AF7601006B240020BA760100C1760100CF760100DE760100EC7601002B77010004770100217701008D2400200E77010046770100647701008C2400205E240020DC
:400DC0007C770100A80B00209C770100C8770100E8770100DD4802F0A3FF04236B7063681868013001F017F80100D94802F01CFF63681868033001F00EF80100D54802F08D
:400E000013FF6368D4481B68597902F00DFF63681868063000F0FFFF0100D04802F004FF63681868083000F0F6FF0100CC4802F0FBFE6368CB481B68997A02F0F5FE76E1D1
:400E4000C94802F06DFF63681868013000F0E3FF0100C64802F0E8FE63681868013000F0DAFFC34B984207D11C232B70173B6B70AB70023BF3705AE163681868013000F060
:400E8000CAFFBC4BBC4F984203D17B8801337B8005E063681868013000F0BDFF78800623B6482B7002F03CFF4E21B54800F0B8FFB44802F035FF0521B34800F0B1FFB34892
:400EC00002F02EFF0623B2486B7102F029FF0521B04800F0A5FF7988AF4802F0A5FE7988AE4800F09DFFAE4802F01AFF00230B22AB72F2701E001BE1AA4802F011FF9E4E2E
:400F0000A948B18802F090FE0923B1882B7097E0A64802F005FF63681868013000F07BFF954B01001A1DB080A1481A6102F07CFE0723F7E09F4802F0F3FE8F4E9A48F188AB
:400F400002F072FE0C232B70F18879E09A4802F0E7FE63681868013000F05DFF864B01009A1DB08095481A6102F05EFE0A23D9E0934802F0D5FE804E9248318902F054FE67
:400F80000F232B7031895BE08F4802F0C9FE63681868013000F03FFF774B01001A00B08008328A481A6102F03FFE0D23BAE0884802F0B6FE704E8748718902F035FE122351
:400FC0002B7071893CE0844802F0AAFE63681868013000F020FF684B01001A00B0800A327E481A6102F020FE10239BE07C4802F097FE614E7B48B18902F016FE15232B7046
:40100000B1891DE0784802F08BFE63681868013000F001FF584B01001A00B0800C3273481A6102F001FE13237CE0714802F078FE514E7048F18902F0F7FD18232B70F189C5
:401040004F4800F0EDFE72E06B4802F069FE63681868013000F0DFFE474B01001A00B0800E3266481A6102F0DFFD16235AE0644802F056FE192355E0624802F051FE624ED2
:4010800007213200022001F09FF8604F3880002804D05F4802F0C8FD00F0AAFC0122B378134213D0934331000520B370FFF7B0FC32000100022001F06BF83880002807D0FE
:4010C000534802F0B1FD00F093FC01E00423AB701A2327E04F4802F023FE4B4E07213200022001F071F8494F3880002804D0484802F09AFD00F07CFC0122B3783100134314
:401100000520B370FFF784FC32000100022001F03FF83880002804D03D4802F085FD00F067FC1B236B7002E03B4802F0F9FD0026267281E0394806E0394804E0394802E0C0
:40114000394800E0394802F0EBFD75E0FC7701001B78010046780100627801007D78010099780100C3780100E178010000790100FEFF0000FFFF0000A80B00203479010028
:401180005F24002067790100612400208D790100A479010064240020CA79010066240020F57901000F7A01002D7A01005B7A0100797A0100A77A0100C47A0100E17A010023
:4011C0000E7B0100247B01004A7B0100607B0100867B01009D7B0100C47B0100DB7B0100027C0100247C0100567C0100787C0100AA7C0100CC7C0100FE7C0100207D010000
:40120000527D01006F7D01006B24002040240020827D0100B07D0100C27D0100D27D0100F47D0100177E0100347E0100527E01001900024802F0F8FCF8BDC046717E010080
:4012400007B5134800F09EFF6A460621012000F0BBFF104B1880002805D00F4802F0E4FC00F0C6FB12E06B465B780C4A19026B469B781B040B43694609780B4313606B46A4
:401280000F21DB7819401B091171537107BDC046A10A000040240020827D010084240020F0B589B004000090C6B2122001916844210C04AD1700029203936E7000F0B0FD33
:4012C0006B4605A8998800F0ABFD0624B30603D53F233B40AB710134730604D5BB049B0E2B550134E4B273B2002B03DA3A0C2A550134E4B2294F3B681B0408D5F30706D540
:401300006B462819998900F08BFD0234E4B23B68DB0308D5B30706D56B462819D98900F07FFD0234E4B23B68DB040BD5A31C290020002B70FFF750FB0100281900F070FDF1
:401340002C7800E02C7003F07BFC154B1B78012BF9D0144A0021507813780002184322002B0000F04DFF104B061E188005D00F4802F05AFC00F03CFB0EE00D4802F054FC0C
:40138000F3B29C4205D9A95D0A4802F04DFC0136F6E7094802F0C4FC09B0F0BD84240020D2240020D3240020402400208C7E0100A87E0100308101006277010010B501249B
:4013C000104B11495A78CC70022A15D0042A0DD0A24214D10D4B0001181803009969DA6914334069DB68FFF75BFF0AE0074B44331A7801321A7004E006331C5401E002235C
:40140000CB7010BD961200206B240020A80B0020F7B5AA4C23789B0700D4ECE0A078A84D062800D9A1E001F0FFFE041E3360541610006278042A00D999E0012393401622A0
:40144000134200D193E0032390E0EB780220012B00D08CE004E0EB78012B00D087E00020FFF7ACFF83E0EB78012B00D07FE000260533EB70934B44331E70A31DF35CF0B277
:40148000002B01D1FFF79AFF0136032EF5D16EE0EB78012B6BD10533EB708B4B1A780193012A20D1874F00263B0044331E703301FB181A8B019BF0B25B789A4205D8A31DFC
:4014C000F35C002B01D1FFF779FF0136032EEED14DE0EB78012B4AD10533EB707A4B1A781F00012A22D0092340E0EB78012B3ED10533EB70744B1A780193012AF3D1714FFD
:4015000000263B0044331E703301FB181A8B019BF0B25B789A4205D3A31DF35C002B01D1FFF74CFF0136032EEED120E05A789B789A4201D9052319E00026624B14330193B6
:40154000019A3301D3189B887A78F0B29A4208D8BA789A4205D3A31DF35C002B01D1FFF72DFF0136032EEBD101E00423EB7004230022637263786A70042B07D101332B70FA
:40158000504BEA7044331B78AB7002E00622AB702A7003F055FB4D4B1B78012BF9D04C49627A48780B780002184305212B0000F05DFE484B071E188005D0474802F034FB6D
:4015C00000F016FA13E0454802F02EFB444E37803388627A9A4207D9E95C424802F024FB338801333380F3E73F4802F099FB02222378934323702378DB0700D485E03B4BE7
:40160000187801381A2827D801F00EFE150E2615262615242615242615242615242615242615242610211000022314E00023A380244B221D1A61A3882D4A9A18042A03D899
:4016400005222C4B9A7002E01E4A126913801C22284B1A700323E37003F0F2FA1B4B1B78012BF9D0234EE0783100FFF7D1F9184902000B784978E070090219430800330096
:40168000062100F0F3FD134B071E188005D0124802F0CAFA00F0ACF933E0174802F0C4FA0F4D2F802B88E2789A4227D9F15C0D4802F0BAFA2B8801332B80F3E796120020FC
:4016C0006B240020A80B00208D240020D2240020D324002040240020B37E0100D97E01004424002030810100627701008C24002002F8FFFF5E240020E47E0100034802F03E
:401700000FFB0122237893432370F7BD62770100A423F0B55B0085B00D00984275D14E4802F082FA00234D4C6A68238023889188994207D912684A48D15C02F075FA2388C8
:401740000133F1E7474802F0EBFA6B6846491A6813780B70062B0AD0092B10D0032B15D1424802F0DDFA20261027002305E0404802F0D6FA08260427012301930BE0022694
:401780003C4802F0CDFA0127019604E011783A4802F04AFA0CE003AA0321012000F078FE019A03AB9B5C1F4204D1344802F0B8FA802610E01E422DD06A6808269388072BEE
:4017C00009D10026063B23802D4B19682388062B37D9002E1ED00022234B1A70294802F023FA082E09D0802E03D02748002E06D100E0264802F094FA05E02548FAE7310034
:40180000244802F011FA2E7224E00100224802F00BFA1FE0214B224918780DF007FF214C00262080204802F0FFF900F0E1F81F480DF0B4FE20801E4802F0F6F900F0D8F8C5
:40184000CCE71068C75CC85C874200D0082601332380BBE705B0F0BDEF7E0100442400203081010062770100A0120020047F01002E7F0100527F0100847F0100F47F010084
:40188000F00B00200F8001001C80010020800100378001005380010068800100D32400209024002040240020A57F010097240020C97F010010B5024800F0E4FD10BDC0465F
:4018C0001117000070B5264D2B78002B46D00022062B0ED0092B20D0032B3DD121480DF091FF214B1880214802F09EF900F080F832E01F4C22801F4B1A7823889A422BD9B9
:401900000DF0C2FF184B18801B4802F08DF900F06FF8238801332380EDE70726144C2280144B22881978914216D97243D3180D4A581C904203D1DA7983799A4208D00DF0CA
:4019400061FF094B1880094802F06EF900F050F8238801332380E3E700232B7070BDC046A01200209024002040240020848001004424002097240020B480010070B50E0002
:4019800015000C00A31B9D4204DD207800F004FF0134F7E7280070BD10B50D4802F044F90C4B187804280ED801F03EFC0305070B0900094808E0094806E0094804E009480F
:4019C00002E0094800E0094802F0AAF910BDC046CB810100D1240020F3800100FC8001000D8101000A810100188101002581010010B51D4C1D48218802F016F92388132B46
:401A00002CD00CD81A48012B2BD01A48002B28D01948022B25D01948072B22D020E00222FF32934216D007D81548282B19D0013A1448934215D013E08122520093420BD03F
:401A40000422FF3293420BD10F4802F0EDF8FFF7A3FF08E00D4804E00D4802E00D4800E00D4802F05DF910BD402400202E810100378101000D7601004A8101005D81010085
:401A8000ED8101006F810100C381010089810100A1810100D3810100088201001FB502AC200003F0BFF8094B1880002805D0084802F0BAF8FFF79CFF07E0E088A388628855
:401AC00021880090034802F0AFF81FBD402400201A8201004382010010B502F059F803680C2B00D1FEE7FEE7030010B580240849084A0868A400C3189A1AA24201DC0B60E3
:401B000005E002F045F80C2303600120404210BDF40B0020E0240020F8B500250F49104B01394A1C14D000221F685C689E68A018B24203D0B858A0500432F8E70200DE68F4
:401B4000141AA64201D020C2FAE710330139E8E702F024F8FEF718FCFEE7C046010000008C8A010001210D4A70B5136814008B43136000230A4D0B4E0B489A002900032BD0
:401B800000D8B15801338150302BF6D1FEF744FA012223681343236070BDC04600001040D91A000000000000000000207F22034B18689043C0B21860C009704710020440CB
:401BC00010B500F059FD00F05BFC00F0D1FA00F0A1FD00F0CBFA10BD10B50024064B1C70064B1C70064B1C70FFF7EAFF054B1C70054B1C7010BDC046D6240020D2240020AE
:401C0000D5240020B4240020BC24002030B591B0040014221E490BA801F0F5FF1D4D2B78002B03D1FFF7D8FF01232B700120002C2CD00021184B08A81C60018106AB1B3124
:401C4000198059801739197108930823123105AA69444260137003F0CFF8002816D10F4BAE2202930E4B1201019305230D4900930D480BAB03F016F8002807D101220B4B70
:401C80004F211A700A480E3210F08AFB11B030BD64820100A2120020B82400207902000000930100C0000020991E0000D12400207882010070B50126304C9AB02378050046
:401CC000334257D00AF06CFF002806D123781A00B24322709B074DD52820002D4CD002262378334213D0264B197804290FD814225143244B24485918244BC9182B000AF097
:401D000035FF002805D12378B343237003E0002801D0002D30D00C23217819422CD0082631400FD06422002101A801F075FF2B006422174901A80AF019FF00281CD1237876
:401D4000B34315E0142601A8320001F065FF114B320059780B4B714359180C4B01A8C9182B000AF003FF002806D1042223789343237001E00020B2E71AB070BDB42400207A
:401D8000D324002000930100BD2400207902000079950100A2120020020010B50120022A2FD8184B1B78042B29D1174C2178194225D1164B002A08D119001D3050310880BF
:401DC000596C0230088010300BE0012A0AD11900962050310880C820596CC0000880FA20000148800A49403318000A700DF0D6FE002806D1042223781343237001E00420AC
:401E0000FF3010BDD1240020D6240020F80B0020D52400207047037840780002184370470170090A4170704770B58389040000250B2B1AD1290004303533220010F0F9FAFC
:401E4000051E0DD16068FFF7E6FF094B21001B68820702D58220400001E00620FF3098470121044A13788B431370280070BDC046B8240020D6240020002382799A4208D1DF
:401E8000821D0378002B03D101309042F9D100E00123180070470000F0B50126A34B85B01A78040032430D001A701F00282800D189E018D8212800D19CE009D8052800D1CA
:401EC00084E0062800D185E0B04200D01FE142E0262800D1ABE000D9A7E0242800D016E14A78934B74E04C2800D1D6E01DD8422800D1C6E0432800D1C7E0412800D006E151
:401F00008C4E0222300001F07EFE00228A4B31781A7014325143894B89485918894BC91801F071FE00F024F9F1E0502800D1E2E006D84F2800D0EAE0080000F005FBE6E041
:401F4000542800D1DBE0FA2800D0E0E07E4A13781E431670DBE0072303AE337000233000737004F057FF072330003370747004F051FF764B1B6818000093FFF77DFF01909D
:401F800000280BD0009802F05FFE704B00211868FFF740FF6D4B2100186808E06C4802F053FE01996A48FFF735FF21006848FFF731FF01200DF096FC3F23337000233000F9
:401FC00073700DF0ADFC0422624B01E00A785A4B1A709CE00B78002B00D098E04A78002A05D15D4BDA809A805C4A4B601A603B7801222AE01B789B0600D588E058490B7863
:40200000102B01D10B3BCB704A4B18780DF088FD03A90880002803D0524B36201B68984701223B7813433B7071E00222CCE7494B197802296BD03A78324268D00422387829
:40204000104204D0032119703B789343EBE708203E78064203D01A703B788343E3E7032955D104233B4A13703F4B1B78002B4ED10120FFF791FE002849D10323354A137074
:4020800045E000222B4B5A70A2E74988162900D9172128880EF0ECFE39E00800FFF7C4FE3B78334204D0002802D1280000F0E6FA3B78DB0704D5002802D1280000F004FA10
:4020C0003B78DB0704D5002802D1280000F048F93B78DB071BD4002809D0122303A98B70AB89C87028680B800EF0B8FE0FE028680EF050FF0BE0080000F056FA07E0002973
:4021000005D01B78334202D0080000F0EBF811233A781A4208D001223B78290093433B70104B20001B68984705B0F0BDD6240020BC240020D3240020D22400200093010061
:40214000BD24002079020000B42400204C0C0020500C0020D1240020A4120020A00B0020980E0020B8240020D5240020704700000023024A1370024A13807047D72400200C
:40218000AC120020014B58607047C046AC1200201FB503000120062B12D80A489B00C3185B881320002B0BD001A8038100238180019219001A0010F03CF9431E984180B2F3
:4021C00005B000BD2A8901001FB503000120062B11D80A489B00C3185B881320002B0AD00192002201A881801100038110F0F0F8431E984180B205B000BDC0462A89010050
:40220000F0B587B001AC1E00154B20801B781500022B1DD1012006291FD8124B890059184F881230002F18D014228B88013B53430D4AD3181B695868FFF7EDFDC3070AD53C
:4022400003A920680F8103968D800EF04FFE04E00420FF3001E08020400007B0F0BDC046D12400202A89010078820100F0B587B001AE1F00174B30801D7800920420022D4D
:4022800025D10120062923D8134C89006418A3881230002B1CD01422013B53430F4AD3181B695868FFF7B7FD28420FD0638803AD2B81009B290030680397AB800EF00CFE02
:4022C000002805D12A89064B1A8001E00220FF3007B0F0BDD12400202A89010078820100AC120020F0B51A4D87B06B680190002B2BD02B88192B28D103AC143BA370A6781E
:40230000062E22D8134AB300D3185A882B889A4218D100270222019920002F8001F073FC6760052E04D101210B4A13788B4313700121A720094A400013788B43137021006B
:402340006B689847A3780133D8E707B0F0BDC046AC1200202A890100D7240020D62400200023F0B53F4F87B07A6803AC050023729A4274D001260288A3702280A278062AE4
:402380006DD839489300C318A9895888884232D12B1D01936360052A1BD1344B1B78334206D06A68B3431278032A10D0FE2309E081232F4A9B00D3585868FFF72CFD83073E
:4023C00002D4FD23237204E0284B1B783343274A1370237A002B04D152202100FF307B689847217A002930D140232A00281D10F020F8207229E09B888B422CD10021281D40
:4024000040232A00616010F014F8207200281CD1A3786868002B05D1FFF7FDFCA82330405B0005E0FFF7F7FC4E238007C00FFF33181A21007B6898470E4B1B78012B04D161
:4024400002210D4A13780B4313700C4A1378B34313700723A370A3780133A3708EE7207A07B0F0BDAC1200202A890100D724002078820100BC240020B4240020D624002060
:4024800070470000014B18607047C046B41200201FB503000120834211D80A489B00C3185B881320002B0AD00192002201A88180110003810FF08CFF431E984180B205B0D6
:4024C00000BDC046488901000023F0B51B4E87B003AC237233680500002B2BD080894D2828D1422229000FF0F1F8207200281CD12B88A0702F1D4930238021006760336894
:40250000FF309847217A00290FD140232A0038000FF08FFF2072002807D1C02263680849D2009B888A58019213800121054A13788B431370207A07B0F0BDC046B4120020D3
:4025400078820100D624002037B5134A037A04009B1842681B01D3181B894D2B1AD16B469D1D172328002B800EF0A6F80B4B0C4AD25A2B88033B9A4205D9207A012804D1E2
:402580000EF0C6FC01E00B2363720121054A13788B43137037BDC046FFFFFF0FFC05000078820100D62400200023F0B589B003ADAB800393027A04001E0018001F00019234
:4025C00000930199DAB2914219D961681A018A1811894D2911D191898C469188614489B20091002E03D101201668070005E061460127002901D1380016680133E1E7002F37
:402600002DD06B461B88AB80002800D00396AB88002B26D0144F154ABA5A9A4221D3637A012B16D10023A42005AE33722388069533800F4B31001B6840009847337A002B66
:4026400006D1C022D200BA580092AA8800990A8023730121074A13788B43137001E00028D4D109B0F0BDC04678820100FC050000B4120020D6240020704700007FB5204E82
:4026800005003468002C37D083890024332B33D1F1231C4A9B00D35806340193DB0226D5043040232A0000210FF0C3FE041E1ED12B8802AA1380130003909870D870686863
:4026C000FFF7A9FBC30704D53220336802A9FF3003E09920336802A9400098470A4B1B78012B04D10221094A13780B4313700121074A13788B431370200004B070BDC046C4
:40270000B812002078820100BC240020B4240020D6240020704700004023044980010A689A43D2B2034013430B607047000204404023044980010A689A43D2B20340134349
:402740000B607047000304408021044A10B5136809060B43136000F089F810BD0000244010B5054C2378002B03D100F02BF801232370FFF7E9FF10BDBC120020014B186870
:402780007047C04640032440024B18681F2318407047C046080324401F2204490B681340082BFBD0024B18607047C0460802244040022440024B18681F2318407047C04616
:4027C00008022440154A164B07201A600023154A15491360154A1160154A16490A6016490860164906380B601549086015490A600421154A1360154A1160154A1360154A6A
:402800001360154A1360154A1360154A1360154A13601268144B1A807047C0460F000002000024404000244001000A0048002440070000800003244004032440100324400D
:4028400044002440000224400402244050002440880E2440C80E2440480F2440080F2440C80F2440880F2440BE120020064A074B11680B40902109040B431360044B1A88C6
:40288000044B1A607047C04600010240FFFF0FFFBE120020880F244010B5FFF775FF03000020834201D0FFF769FFD822034B92001968114201D000201A6010BDC00F2440F9
:4028C0007047000010B5040000F0E3FA044A054B1168A4050B401C43146000F0DEFA10BD00E400E0FFFF3FFF10B50424054B064A1C60064B03209A64FFF7E4FF044B1C60F9
:4029000010BDC04680E100E0C12800000000002000E100E00422014B1A60704780E200E07F23044AC00111680B401843C0B210607047C0460003044070B5040000F0A9FA62
:40294000E104E024054DA4032B68054A21401A400B0013432B6000F0A0FA70BD00010B40FFFFC7FF024B8000C318186819607047400000201F2318401E3B8340014A1360F9
:402980007047C04600E100E070B5802504002D02064BAC4205D9586800F072FA044BE418F6E79868604300F06BFA70BDA00E00200080FFFF10B5034B1B7B584300F060FA3C
:4029C00010BDC046A00E0020F0B5050087B000F060FAEB1E049003932D2B5BD8304B1B789D4204D82F4B1C782F4BE4B21EE02F4B1B789D4204D82E4B1C782E4BE4B215E08F
:402A00002D4B1B789D4204D82C4B1C782C4BE4B20CE02C4B1B789D4204D82B4B1C782B4BE4B203E02A4B1C782A4BE4B21B78EA1EDBB20193284B294F9A5C059302922F2AD8
:402A400004D92A2D02D919263E6008E03F233E681E40029BB34205D2204B029A1A60052000F00EFA1B4B1E4AED182B780520DBB213601C4B019A1C601B4B1A60FFF79AFF8D
:402A8000029BB34206D9059B039A05209B5C3B6000F0F6F9049800F000FA07B0F0BDC04640F3FF0F41F3FF0F42F3FF0F43F3FF0F44F3FF0F45F3FF0F46F3FF0F47F3FF0FBE
:402AC00048F3FF0F49F3FF0F4AF3FF0F4BF3FF0F4CF3FF0F4DF3FF0F528901002CFF0B4028FF0B401CFF0B4020FF0B40012370B5040080200E4900020A681D001A430A60E1
:402B00000C490D4A11600D490A6802430A60002C01D100200AE00120FFF74CFF084B1B682B42F6D1013C002CF5D1102070BDC04660F02E400220000078002E4010002E40B7
:402B40000C002E4010B500F0A4F90421034A13688B43136030BF00F0A0F910BD10ED00E037B500F096F904210D4A0E4D136804005B005B0813600C4B0C4A1B8802209BB288
:402B800013600B4A13680B4313602B680193FFF7D3FE30BF019B20002B6000F07EF937BD00000B4000010B4052F2FF0F0C000B4010ED00E010B500F06CF91F4A80211368D6
:402BC00009069B009B0813601C4A13689B009B0813601B4A13689B009B081360194A13689B009B081360184A13689B009B081360164A13689B009B081360154A13689B00D4
:402C00009B081360134A13680B4304211360124B124A1B889BB21360114A13680B431360104AFB3113688B430E390B43136030BF00F033F910BDC0460800044008010440BF
:402C4000080204400803044008040440080504400806044000000B4050F2FF0F0C000B4010ED00E02C000B4001200A4A136883431360022311689943116007492E330A6847
:402C80009A43203B1A430A6007220B68934303430B60704700F02E4000FF2E4010B5FFF7E3FF8021024A090613680B43136010BD00F02E400122104B70B51C6814400028CD
:402CC00015D0904215D1022507261968A94319600A490A68B2432A430A600A682E35AA43103D2A430A601A681043186001E0FFF7BBFF200070BDC04600F02E4000FF2E408A
:402D000010B500F0C6F8C021034A090213680B43136000F0C2F810BD00010B4010B5802400F0B7F80749084B0A68E4011A4022430A600A6813408022120213430B6000F091
:402D4000ACF810BD00010B40FF3FFFFF70B5050000F09FF80E4B04001A68C0231B02134011D10C480C49054028000E680B4A3240104308600A68012B01D1FFF7C1FF200041
:402D800000F08BF870BDFFF7C9FF0123E9E7C04600010B400404040010020B40FBFBFBFF0022022804D8034B80001B189A69996110007047C012002002280AD8054B80005B
:402DC000C158054B5A6A8A435A62044A53680B435360704780890100C0120020B40E0020042270B5224C2368134213D021494B6813420CD0204B5D6A48681540A8434860EA
:402E0000596A914359629B69002B00D098470420FFF79CFF80232268DB001A4215D015494A681A420DD0144A556A48682B4098434860516A114B0B405362D369002B00D012
:402E400098478020C000FFF781FF80232268DB021A420CD0074A52681A4204D0064B1B6A002B00D098478020C002FFF76FFF70BD10020B40B40E0020C0120020FFFBFFFF54
:402E80000230800803D00138FDD1C046C046C0467047EFF3108072B6704780F310887047F0B5204BC5B000928A1803900F0001209A4234D8002005000E0A330204ACE41A1E
:402EC000009A954204D3012829D90120404226E00028F8D15A1CFF32019202909F420CD80099A94209D903991A78495DE154914201D001220292013501E01978E154019AF2
:402F000001339A42EAD1029B002B03D004A9300000F016F9013C0136FF3C019BD0E745B0F0BDC046FFFF030001607047016070472B4B2C4A19782C4B09021B7819432B4B10
:402F40001B7812781B021343294A934204D1072909D1284B033906E0D4221201934202D1042900D1234B244A1360244B244A1960244B1B7812781B021343234A134200D11F
:402F8000224B234A23491360234A0B7812781B021343224A934204D0214A934201D0052B00D1204B204A1360204B214A1B681268AA2A14D11F2B12D90B780E2B0FD11D4B37
:402FC0001D4A1B7812781B0213431C4A13601C4B1C4A1B7812781B0213431B4A1360704759F1FF0F5EF1FF0F58F1FF0F5FF1FF0F580B0000580D00006C002E4074002E4027
:403000005AF1FF0F5BF1FF0FFFDFFFFF0220000078002E405DF1FF0F5CF1FF0F0F0F000005050000050F000080002E40EC0F00F0E00F00F06DF2FF0F6CF2FF0F84002E4083
:403040006FF2FF0F6EF2FF0F94002E4010B5FFF7B1FC10BD10B5FFF797FC10BD10B500F05FF810BD10B500F063F810BD10B500F05FF8034800F02AF8032000F02DF810BDFD
:403080002132000010B5024800F036F810BDC0462132000000487047020200002B2070472B2070472B2070472B2070472B2070472B2070472B2070472B2070472B20704755
:4030C0002B2070472B20704770470000014B18677047C0460000002010B50400FFF7D9FEC021044AA40113688B431C431460FFF7D4FE10BD0CE400E010B58024054B640164
:403100001C60054B18670320FFF7E6FF034B1C6010BDC04680E100E00000002000E100E08022024B52011A607047C04600E100E08022024B52011A607047C04680E100E093
:403140000023F0B5C7B0029303932C4B050098424FD800294DD0802206A8520000F053FD274B9D4201D8274B00E0274BFF220493264C2749274B04AE726026600B60C046CB
:40318000236801911B0F0F2B04D021680023090F0A2901D0236813400293029F002F2AD1FFF777FE0397029B002B16D11A4A2D040492049A194915430495019D2660134A63
:4031C0002960C0462168090F0F2903D01168090F0A2901D01368DBB20293039B002B05D10393039B002B01D0039B0293FFF755FE01E004230293029847B0F0BDFF0300003A
:40320000FF010000B6D70000B6D70001080010400400104004000080B6D800000500008010B513F047FD10BD02B4714649084900095C49008E4402BC7047C04603B47146E7
:40324000490840004900095A49008E4403BC7047002243088B4274D303098B425FD3030A8B4244D3030B8B4228D3030C8B420DD3FF22090212BA030C8B4202D31212090299
:4032800065D0030B8B4219D300E0090AC30B8B4201D3CB03C01A5241830B8B4201D38B03C01A5241430B8B4201D34B03C01A5241030B8B4201D30B03C01A5241C30A8B42DD
:4032C00001D3CB02C01A5241830A8B4201D38B02C01A5241430A8B4201D34B02C01A5241030A8B4201D30B02C01A5241CDD2C3098B4201D3CB01C01A524183098B4201D356
:403300008B01C01A524143098B4201D34B01C01A524103098B4201D30B01C01A5241C3088B4201D3CB00C01A524183088B4201D38B00C01A524143088B4201D34B00C01AEF
:403340005241411A00D20146524110467047FFE701B5002000F0F0F802BDC0460029F7D076E7704703460B437FD4002243088B4274D303098B425FD3030A8B4244D3030BD4
:403380008B4228D3030C8B420DD3FF22090212BA030C8B4202D31212090265D0030B8B4219D300E0090AC30B8B4201D3CB03C01A5241830B8B4201D38B03C01A5241430BA0
:4033C0008B4201D34B03C01A5241030B8B4201D30B03C01A5241C30A8B4201D3CB02C01A5241830A8B4201D38B02C01A5241430A8B4201D34B02C01A5241030A8B4201D321
:403400000B02C01A5241CDD2C3098B4201D3CB01C01A524183098B4201D38B01C01A524143098B4201D34B01C01A524103098B4201D30B01C01A5241C3088B4201D3CB00A4
:40344000C01A524183088B4201D38B00C01A524143088B4201D34B00C01A5241411A00D201465241104670475DE0CA0F00D04942031000D34042534000229C4603098B42BA
:403480002DD3030A8B4212D3FC22890112BA030A8B420CD3890192118B4208D3890192118B4204D389013AD0921100E08909C3098B4201D3CB01C01A524183098B4201D3FE
:4034C0008B01C01A524143098B4201D34B01C01A524103098B4201D30B01C01A5241C3088B4201D3CB00C01A524183088B4201D38B00C01A5241D9D243088B4201D34B005D
:40350000C01A5241411A00D20146634652415B10104601D34042002B00D54942704763465B1000D3404201B5002000F005F802BD0029F8D016E770477047C04670B5041E81
:4035400028D000F007FB9E231B1A962B0ADC9622D21A94406202520AD8B25202520AC005104370BD992B18DC9922D21A9440114A2240610704D00F210C40042C00D004322F
:40358000510103D50B4B1A409F231B1A9201520AD8B2E2E700200022DFE705222500121AB921D5402200C91A8A40541EA2412C001443DCE7FFFFFFFBF0B55F4656464D46AE
:4035C0004446F0B40D0399464E002B0B87B00700924680469B46760DCC0F002E69D06D4B9E4235D05B468022DD001204430F13432B439B46C3009846674B00279C4600235F
:40360000664401934A4615035000D20F53462D0B400D914600D176E05E4A90426CD080225B0F120413435C4AED0094461D4353460022DB00604449463618701C6140029086
:4036400017430F2F00D9AFE05448BF00C759BF465B461F4300D088E000239B469846023308270193CEE74946022A6AD0032A00D109E2012A00D0BBE11140002200230025D0
:403680009046CCB200212D030A0D12052D0B1543434A1B0515401D436D00E4076D0825434046290007B03CBC90469946A246AB46F0BD034352D05B46002B00D18AE1584669
:4036C00000F048FA03000B3B1C2B00DD7BE11D22D31A3A0001005D46DA4008398D4013008F402B439B46B8462E4B00279C46002360444642019385E752462A432CD1002576
:403700000023022297E752462A4321D0002D00D154E1280000F01EFA03000B3B1C2B00DD46E11D21CB1A51460200D9405346083A954093400D431B4A9446604440420022A8
:4037400079E7012400220C40124B0025904699E70025002301226EE703226CE700239B4698460133042701934CE703230C27019348E700238025984600242D03054B81E770
:403780005D464346019A6FE75D4643462100019A6AE7C046FF07000001FCFFFF8C890100FFFF0F80F30300004246120C91461A0C9446424617044A461B041B0C5A436046DA
:4037C00090464A4642431000039262461C003F0C7A437C4342440192220C9246019A5244904506D98246802040028046C24450460390100C049048462404240C1204121934
:4038000005922A0C2D042D0C68432C00824648467C4350438146200C8046574357444744BA4503D9802040028046C144380C3F04B84648442404240C01900498A0444044D3
:4038400004905846000C814658460404200C8246070048465F434C464343604660436446834650464443380C8446E4186444A34203D980235B029C46E34448463F04230C05
:403880003F0C2404E419574668436F4384464D46504655434243380C814662444A445B44944503D9802040028446654403983F04834604983F0C8446E344C34580414042DC
:4038C0008246100484460198674484466744A344BC46A345A4419946D44464428742BF41D4458041E144A04699459B417F424042C8440743120CBA18A045A4415F423B007F
:4039000064422343D71843467D19DB0D6D021D435B465A02059B1A43531E9A415B46DB0D1A4343465B021343EA0107D501225C0813402343EA07029E13436D08574AB21880
:40394000002A4BDD580709D00F201840042805D0181D98429B415B42ED180300E80104D54F4A15408022D200B2184E48824200DDE7E60124DB08680718436D025305804654
:403980002D0B5B0D0C407DE6802259461203114208D0154206D115432D0398462D0B4C46414B6FE65D4615432D032D0B3E4B69E603005546283B9D400023BCE6504600F094
:4039C000C9F82030A8E60300283B9F400023BB46984689E600F0BEF8203073E60124A61A382E07DD00220C4000230025904649E6029EA3E71F2E20DC20222C001800921B93
:403A0000F040944093400443581E83411C43F540630709D00F232340042B05D023001C1D9C4292415242AD182B021FD5012400220C4001230025904624E61F202C0040428E
:403A4000821AD440202E1CD04022961BB5402B43581E83410720234318400025002809D00F2200251A401C00042AD8D1230068076D022D0B0124DB08034398460C4000232A
:403A800000E60025E3E780220124120315432D0398462D0B0C40044BF4E5C046FF030000FFFFFFFEFE070000FF0700004200120E511C4302C9B270B55D0AC40F012915DD2B
:403AC000E02189008C466D071B0B6244002128000D0D2D052B431C4D52052B40520813435B00E4075B082343190070BD002A15D1002D1FD0280000F02DF80A281DDC0B2335
:403B00002A001B1ADA4013000200153295400F4A1B03121A52051B0B520DD7E7002D06D080221B0B120313436D07094ACEE7084A0023CBE700220023C8E703000B3B9D40AB
:403B40002B000025E3E7C046FFFF0F8089030000FF0700001C2101231B04984201D3000C10391B0A984201D3000A08391B09984201D30009043902A2105C40187047C04628
:403B800004030202010101010000000000000000014B18687047C046741200200E4B70B500251E000D4CE41AA410A54204D0AB00F35898470135F8E714F056FF084B002585
:403BC0001E00084CE41AA410A54204D0AB00F35898470135F8E770BD748A0100748A0100748A01007C8A010030B50024A24208D0035D651C0C5DA34201D0181B02E02C00C5
:403C0000F4E7002030BD002310B59A4203D0CC5CC4540133F9E710BD03008218934202D019700133FAE770470FB40B4B13B51C68002C05D0A369002B02D1200000F03CFA95
:403C400005AB049AA1682000019300F001FC16BC08BC04B01847C0467412002070B505000E00002804D08369002B01D100F024FAAB69AC68002B02D1280000F01DFA254B07
:403C80009C4201D16C6808E0234B9C4201D1AC6803E0224B9C4200D1EC68A3891B0702D52369002B11D12100280000F09BF800280BD0012040422BE0013B0136A360002B37
:403CC00008DB23685A1C226019703178A3680029F2D10BE0A269934201DB0A29F1D12200280000F027F8431CEFD1E2E7013BA360002B08DA22000A31280000F01BF8431C25
:403D0000D7D00A2004E00A2023685A1C2260187070BDC046D4890100F4890100148A010010B5034B01001868FFF798FF10BDC04674120020F8B505000F001400002804D080
:403D40008369002B01D100F0B7F9234B9C4201D16C6808E0214B9C4201D1AC6803E0204B9C4200D1EC68A369A360A3891B070AD52369002B07D023682269FEB2981A636951
:403D800098420FDB08E02100280000F02BF80028F1D0012040421DE02100280000F01EF90028F6D1A3680130013BA36023685A1C22601F706369984205D0A3893000DB07ED
:403DC00008D50A2E06D12100280000F007F90028DFD13000F8BDC046D4890100F4890100148A0100364B70B51D6806000C00002D05D0AB69002B02D1280000F05DF9314B25
:403E00009C4201D16C6808E02F4B9C4201D1AC6803E02E4B9C4200D1EC680C22A35E9AB2110723D4D10607D409220120326037321343A381404242E0530713D5616B0029A1
:403E400008D023004433994202D0300000F02CFA002363632422A3899343A38100236360236923600822A3891343A3812369002B0BD1A0238022A1899B0092000B40934254
:403E800003D02100300000F0D1F90123A289134005D00023A36063695B42A36103E0920700D46369A36000202369834207D10C22A35E1A0603D540221343A381013870BD49
:403EC00074120020D4890100F4890100148A0100F7B58A8905000C0013075AD44B68002B02DC0B6C002B19DDE76A002F16D000232E682B6080235B011A4001D0606D14E0A0
:403F00000123216A2800B847431C0ED12B68002B0BD01D2B01D0162B02D12E6000205AE04022A3891343A38155E0A3895B0706D56368C01A636B002B01D0236CC01A00231E
:403F40000200216A2800E76AB847A389421C06D129681D293AD8204ACA40D20736D50022626022692260DB0405D5431C02D12B68002B00D16065616B2E600029CED0230026
:403F80004433994202D0280000F08EF90020606321E00F69002FC1D00B680F60DB1B01930023920700D14B69A36003E0019B3F181B1A0193019B002BB0DD019B3A00216A1E
:403FC0002800A66AB0470028F0DCA389402201201343A3814042FEBD010040200B6970B505000C00002B01D100201CE0002804D08369002B01D100F05FF80B4B9C4201D1E2
:404000006C6808E0094B9C4201D1AC6803E0084B9C4200D1EC680C22A35E002BE4D021002800FFF755FF70BDD4890100F4890100148A010010B5024900F0B0F810BDC046AF
:40404000DD3F0000002310B5040003604360836081814366C281036143618361190008225C30FFF7D9FD054B24626362044BA362044BE362044B236310BDC046CD49000099
:40408000F54900002D4A0000594A000070B568254B1E5D430E002900743100F051F9041E08D000212A00016046600C30A0606832FFF7B2FD200070BD836913B50400002BE0
:4040C00028D18364C3640365134B144A1B6882620193984201D101238361200000F020F86060200000F01CF8A060200000F018F80022E06004216068FFF7A4FF0122092185
:40410000A068FFF79FFF02221221E068FFF79AFF0123A36113BDC046D089010035400000F8B51D4B06001D68AB69002B02D12800FFF7C2FF4835AC686B68013B05D40C22B0
:40414000A75E002F10D06834F7E72B68002B01D02D68F0E704213000FFF798FF28600028F6D10C23336016E0012320005B42E3810233A38167662760A76067602761676195
:40418000A7615C3008223900FFF746FD20006763A763A764E764F8BDD0890100F7B504000700002601914834002C16D06368A5680093009B013B00930DD4AB89012B08D982
:4041C0000E22AB5E013304D029003800019B984706436835EDE72468E6E73000FEBD000070B50E001D000E23C95E90B01400002906DA00232B60B3891B060FD540230FE05E
:4042000001AA00F055FC0028F3DBF023029A1B021340054A9B185A4253412B608023DB000020236010B070BD00E0FFFFF7B502268B8905000C00334210D101AB6A46FFF733
:40424000CFFF00990700280000F07AF800280CD10C22A35E9A0523D43343A3812300473323602361012363611AE080220D4BAB62A38920601343A381009B20616361019BB3
:40428000002B0AD00E23E15E280000F023FC002803D00122A3891343A381A3891F43A781F7BDC0463540000070B50500002944D00C1F2368002B00DAE418280000F03BFC3C
:4042C0001E4A13681100002B02D16360146031E0A3420DD92268A018834203D118685B688218226063600C6024E0A24203D813005A68002AF9D11E689819A0420BD1216846
:40430000711858181960824214D110685268411819605A600EE0A04202D90C232B6009E021686018824203D1106852684118216062605C60280000F0FFFB70BD3824002078
:40434000032370B5CD1C9D43083506000C2D01D20C2501E0002D01DBA94202D90C23336048E0300000F0E7FB234B1C681A002100002913D00B685B1B0DD40B2B02D90B608E
:40438000CC181EE08C4202D1636813601AE04B6863600C0016E00C004968E9E7174C2368002B03D1300000F0FFFA20602900300000F0FAFA431C18D00323C41C9C43A0426C
:4043C0000DD12560300000F0B7FB200007220B30231D9043C31A0ED05A42E2500BE0211A300000F0E1FA431CEBD10C233000336000F0A2FB002070BD38240020342400206C
:40440000936810B5013B9360002B05DA9469A34208DBCBB20A2B05D01368581C10601970C8B201E0FFF786FC10BDF8B506000F001400D518AC4208D021783A003000FFF72D
:40444000DFFF0134431CF5D100E00020F8BD0000F0B59FB006000F0002920593002804D08369002B01D1FFF727FE7F4B9F4201D1776808E07D4B9F4201D1B76803E07C4B92
:404480009F4200D1F768BB891B070AD53B69002B07D0002306AD6B6120336B761033AB763DE039003000FFF79DFC0028F1D001204042D6E0059A111D12680591002A00DA8E
:4044C0007FE00992013423782E2B00D18DE021780322684800F024FB002807D0654B2A68C01A4023834013432B6001342178631C062261480293297600F012FB002800D174
:404500009DE05E4B002B00D090E00722059B07339343083305936B69039A9B186B61029C2378002B04D1029BE31A049312D003E0252BF8D00134F3E7049B029A3900300054
:40454000FFF773FF431C00D186E06A69049B944663446B612378002B7ED00122002352426A6002A95432521801342B60EB60AB601370AB6521780522414800F0D1FA002856
:4045800008D03F4B2A68C01A0123834013432B600134EFE72B68DA0604D55322202102A8121811701A0704D553222B2102A81218117022782A2A00D17CE7099B00200A21E2
:4045C00005E05242EA60022213432B607AE72278303A092A04D84B4301349B180120F6E7002800D16FE709936DE763782A2B0AD1059B02341A1D1B680592002B01DA012370
:404600005B42079363E700230A201A0001346B6021783039092904D84243013452180123F6E7002B00D152E7079250E705AB00933A00144B2900300000E000BF07E005ABED
:4046400000933A000F4B2900300000F08BF80390039B013300D05EE7BB895B0600D526E70B981FB0F0BDC046D4890100F4890100148A01003A8A01003E8A01000000000018
:40468000348A01002B440000F7B5170001938A680B6900900C00934200DA130022003B6043321278002A01D001333B6023689B0602D53B6802333B60062523681D401ED0B4
:4046C000230043331B785A1E9341226892061CD53020E1184331087021005A1C45310978A2184332023311700FE022000123193201990098089EB047431C0ED00135E3687A
:404700003A689B1A9D42F0DBDAE72200019943320098089DA847431C02D10120404220E006232068E1683A6803400025042B03D18D1AEB43DB171D40A3682269934201DD11
:404740009B1AED180027BD420AD0220001231A3201990098089EB047431CDED00137F2E70020FEBDF0B58BB006920A0043320793059004920A7E0C00109B6E2A00D1ABE036
:4047800011D8632A22D009D8002A00D1B5E0582A00D0C5E045310A70814A4FE0642A1DD0692A1BD0BCE0732A00D1AAE009D86F2A29D0702A00D0B3E0202209680A432260C0
:4047C00037E0752A1FD0782A33D0A9E00E001A684236111D196013683370A4E021681A68080606D4490604D5111D19600023D55E02E0111D19601568002D3BDA2D23049A47
:404800006D42137036E021681A68080606D4490604D51568111D1960ADB202E0111D196015685F4B227E039308276F2A1DD00A271BE022007821453211705A4A196803925E
:40484000081D226818600D68100602D4500600D5ADB2D30702D520231A4322601027002D03D1202322689A4322602300002243331A7002E00A274A4B03936368A360002B73
:4048800009DB0422216891432160002D05D1049E002B11D07BE0002D79D0049E28003900FEF75CFD039B013E5B5C280033703900FEF7CEFC051EF1D1082F09D12368DB0783
:4048C00006D563682269934202DC3023013E3370049B9B1B23612BE009681A68080607D4490605D5111D19601368A28A1A8004E0111D1960136862691A600023049E23613A
:4049000016E01A68111D1960166800216268300000F006F9002801D0801B6060636803E0260042363270012323610023049A1370079B09AA00932100069B0598FFF7A4FEC3
:40494000431C02D10120404227E02369320006990598079DA847431CF4D0236800259B070FD4099BE068984217DA180015E022000123193206990598079EB047431CE1D039
:404980000135E368099A9B1A9D42F0DBE9E72600039B42361B7833708EE70BB0F0BDC046458A0100568A0100002370B5064C050008002360FDF798F8431C03D12368002B07
:4049C00000D02B6070BDC046D824002070B50C000E25495F00F0B2F8002803DB636D1B18636503E0A289024B1340A38170BDC046FFEFFFFFF8B51F008B8905000C0016009E
:404A0000DB0505D50E23C95E0022022300F074F8A289054B28001340A38132000E23E15E3B0000F01FF8F8BDFFEFFFFF70B50C000E25495F00F060F8A389421C03D1054A21
:404A40001340A38104E0802252011343A381606570BDC046FFEFFFFF10B50E23C95E00F015F810BD70B50500080011000022064C22601A00FCF782FF431C03D12368002BF1
:404A800000D02B6070BDC046D8240020002370B5064C05000800236000F064F8431C03D12368002B00D02B6070BDC046D8240020002370B5064C050008001100236000F018
:404AC00059F8431C03D12368002B00D02B6070BDD8240020002370B5064C05000800236000F050F8431C03D12368002B00D02B6070BDC046D824002070B5050008001100A0
:404B00000022064C22601A0000F044F8431C03D12368002B00D02B6070BDC046D8240020C9B28218904204D003788B4202D00130F8E70020704770477047000070B5050052
:404B4000080011000022064C22601A0000F02AF8431C03D12368002B00D02B6070BDC046D824002058220120014B40421A607047D824002058220120014B40421A60704717
:404B8000D82400205822024B00201A607047C046D824002058220120014B40421A607047D824002058220120014B40421A607047D8240020134A1088810703D08107890FC3
:404BC000401A001D11791030484381B25088820703D08207920F801A001D800040180A494030098980B2CA0701D0503080B2890706D504495422091F09785143081880B231
:404C000070470000C20E0020F412002010B501F0D4FF10BD10B501F0E6FF10BD10B501F0EAFF10BD0121002808D0FF218A31C180032101800621418081800021084670478B
:404C400010B500F05BFA10BD10B50749044609780220002907D1204602F038F8002802D120460AF043FF10BD6010002070B504460120002C12D02368002B0FD061680029B3
:404C80000CD0074D06222889208118462968FEF7BAFF6968606809780170002070BD0000F4120020FFB585B0002768460E9D07734F481C460078002802D0082009B0F0BDD3
:404CC00010990F9801900095029105A807C800F007F90028F2D16946264603AB84460873002C19D0002115E08A00B75A082F09D990198078002805D0083FB7521878401C8D
:404D0000187005E0002914D00027B75290198770491CC9B2A942E7D360460028CED10F98002809D0109901F0EBFA002804D00120C4E701208446EFE701F055FF2D480021AC
:404D4000416081600599016021888180022D07D3A1798171A17AC171A1890181218A418100211EE0481C19E082008B00A75AE65ABE46BE4211D26F463E80B4461E190296A0
:404D8000B678BE7001967646E6521719029EBB78B3706646A652019EBE70401CA842E3D3491CA942DED3134822460C3000906846037B0799069800F01BF90028B8D168461C
:404DC0000B4C007B60700B480C3001F03BFF0028AED1084907480C3107F07EFE0028A7D107F098FE0028A3D10121217066E70000BC0E0020E8120020F8B5054636480F46C8
:404E00000078002802D002242046F8BD002F60D000243249002D16D02A89D0070DD02868002808D003881B3BE12B04D24088FB2801D81B2801D2012409E0900707D56868C9
:404E4000002804D1F7E70020088108604860002CDAD122482E8906811F481B21801D01804180042101711C490020891C0870F00705D019480622801D2968FEF7C4FE1749CA
:404E8000B00703D56A68144812788270124D0E46AD1D281F0D60486001F03EFF284601F02DFF30890EF024FC30890DF0BFFD28880DF0C2FD30890EF085FD03461033FFF7B7
:404EC00079FE1F21C018890140183880A91F88809AE7012498E70000BC0E0020F4120020FFB58446384F1C460020BB883F78054602460646002F11D100290ED00299994296
:404F00000BD36146002908D0002C06D00A99002906D02E4B0B99994202D2012004B0F0BD002144E0AB001F19BF78002F3BD0E35A002B38D07B43591889B22B0000F04AF829
:404F4000050410161C253100A7782388BC46FF27233BEB37BB4222D26346032B1FD322E0A388002B1FD0302B19D31CE02389002B19D0282B13D316E0A289002A13D013465A
:404F8000134F233BBB420AD20DE0268A002A0AD033460F4F233BBB4201D2964203D901200EE0002001E000280AD16D1CEDB2099B9D42B7D31C2463435B1802998B42ACD871
:404FC0009642AAD8AAE70000BC0E002079020000BAFF000030B47446641E2578641CAB4200D21D46635D5B00E31830BC18470000FFB583B0002469460C801F4606468C80E5
:40500000002806D00598002803D004983043800701D0012466E0002FFBD03449049809888842F6D3FEF72EF8FEF71CF800F016FC002855D100F07EFD002851D12C490846E5
:4050400001F092F905042D0C4AD12A480499066081800021C18007810C98007AC00704D0684601F0D9FD040007D10C98007A800703D501A801F0D8FD0446BF1DFEB2002CFF
:4050800020D13146059800F05DF804001AD10EF0A7FC040016D16A461088928808368518144AF1B29088D288AEB29319984207D3401B801A80B201F047FC050007D000E0A4
:4050C000FF25012400F062FA002D04D008E0F8B200F01CF9F6E700F085FA07490120087000F0CEFB204607B0F0BD0000C00E00203152000000130020C80E002010B5034821
:405100000078012801D101F0C1FA10BDC80E002070B5084B0446DA889E8803205518B54206D8186880182060D8884018D880002070BD00000013002001480089704700002D
:4051400000130020F0B587B007460D4600208900009006916846FFF7DBFF844600285DD1304800990160002117E02E4B88001A680629115406D22C4C0419667882185670C6
:40518000628805E0C419203CA67A8218567022891B68C018491C4280C9B2A942E5D300242DE0601CC2B2059025E01E4FA30039689600581840887118039604904E88B04264
:4051C00017D938466F46FE80B6464F786E4677710297049F4F800168039F5E18767879184E700168764659184E800068029F18184770521CD2B2AA42D7D30598C4B2AC4209
:40520000CFD36046002809D168460699FFF780FF8446002802D1054900980860604607B0F0BD0000CC0E0020A08A0100D00E00207047000010B5002809D005494A68002A7B
:4052400005D0011F08788000105801F02BFB10BDCC0E002010B50446FFF76EFFC0B2801DA0420CD307484068002808D0A100405801F08AFA002801D00470001D10BD002095
:4052800010BD0000CC0E0020F8B516460D460446FFF752FFC0B2801DA04203D20020C0430090F8BDB2B2E9B2684601F093FA0099481C03D0024AA000526811500098F8BDBD
:4052C000CC0E0020F8B50746FFF736FF801DC6B20A49002005460C680DE06178002907D06188B94202D32078FFF7B4FF002804D1241D6D1CEDB2B542EFD3F8BDCC0E0020BA
:4053000010B5002801D0FFF795FF10BD70B506460948002504680BE06178002905D062882078121D0023FFF7AFFF241D6D1CEDB2B542F1D370BD0000CC0E0020FFB581B09B
:405340000A9F16000C4620D000F0F6F8054604281BD0002F0CD03846FFF7B4FF20492A0151184860002810D03A460499FEF74BFC1B4928010E504618778101980570200441
:4053800006D47D20C000444304E0FF2005B0F0BD6404640C00F0BEF80746042807D000F053FAA0420BD800F04FFA201A03E0204600F0AEFA0020F06035720020E6E700F0B2
:4053C00043FA009000F0BAFA00980121001B009000F0F0F802493A0151180098C860E6E70C130020F8B5042801D3FF20F8BD060116483418217A042903D0E068002802D035
:4054000017E00020F8BD00F01FFA054600F096FA00F0A0F804280CD001010C480F18F8680021451900F0C6F80020F860284600F06FFA6068054D002801D0FFF761FF042066
:4054400020720020A8516081E060DAE70C130020FEB500266A46304601232549050169180D7A042D02D0C96800291BD000211154401CC0B20428F0D300246846005D0028DF
:4054800030D01B48210108184189476805680291002101604160042241810272C160002E02D015E01354E3E700F054F804280ED001010F4808180190C6680021304600F003
:4054C00079F801980021C160304600F021FA0126002D07D038460299A847002F02D03846FFF70EFF641CE4B2042CC6D3FEBD00000C1300200EB5002005216A460090118176
:4055000050810348694600680FF0F1F80EBD0000D40E0020074A0020010189180B7A042B02D0C968002903D0401CC0B20428F3D3704700000C13002005490020020152182B
:40554000127A042A03D0401CC0B20428F6D370470C13002030B50A4B04200A4C00210A011219157A042D06D0D268002A03D09A4201D808461346491CC9B20429EFD330BDF5
:40558000FFFF00000C1300207047000030B50020074C05460423020111190B72A5504D60401C4D81C0B2CD600428F4D330BD00000C13002030B5094C00231A011219157AC7
:4055C000042D04D0D568002906D02D18D5605B1CDBB2042BF1D330BD2D1AF7E70C130020002070471CB5002469460C70142001902346054A05480FF07FF804480068401C61
:4056000000D1FF2420461CBD61560000D40E00203EB5124A0146FF2000230124126800290DD0012914D0042908D104206946009308814B8110460FF05AF880B23EBD6846B0
:40564000009304814381694610460FF04BF8F4E768460093048143816946EBE7D40E002070B545890468416800890300FFF7B2FC08280509091E22282628002006F0DCF800
:405680001EE0022908D0C8B22A4621460DF022F92046FFF735FE13E002202A4621460DF019F92946204600F00DF809E000200EF01DFD05E02046FFF7CBFE01E0FDF704FD2B
:4056C000002070BD014B0022DB681847D80E002070B5448905680089022803D0032809D0FF2070BD2246094C0023A46829460120A04708E0FFF78EFA241DA2B20023294622
:40570000022007F09CF8002070BD0000D80E002070470000024800214160018041807047D80E002070B50C46002186B016460391012802D0022859D116E003A9012007F0E0
:40574000D3F801281BD1039D324621462846FEF75AFA0095287801900220694608814E816846FFF7B5FF41E0214D002B686809D0049004A9022007F0B7F801281DD0022028
:4057800006B070BD002812D0298840182146FEF73AFA28880024801980B228806988091D884206D12C801348FFF792FF03E00320E6E788421AD96C6018E004986860E278C4
:4057C000A378110219430B4A698000231060E3565360032313815181A1788170E178C1706178417021780170042028800020C7E7D80E00204C1300203EB515460C460228C5
:4058000003D004280CD000203EBD0091019002206946088107484A8100680EF068FF07E00DF058F8044B0022DB6829462046984701203EBDD40E0020D80E0020014AD160D3
:4058400090607047D80E0020034801688068081A0A214843000970475813002010B5FDF705FC4C2204490548FEF7CDF903490120C870002010BD0000BC8A01005C170020D3
:4058800010B5FDF7EBFB10BD70B5134C2368002B08D0207B1149C20705D04008400020738868A08070BD88680B4AA18880B29268814203D90A4D691A091802E0814202D2D2
:4058C000411A5118A160A080A0689842EAD30EF02BFF00F013F870BD58130020C0102E40FFFF000010B508461946FFF7A7FF10BD704710B5FFF780FF10BD00000348002108
:40590000016041608160C1607047000058130020024610B5FF20002A0CD0FFF7EFFF064C0321207B0843207310010A21FDF716FD2060002010BD00005813002000B50448E0
:405940000A21806848430209FFF7D8FF104600BD581300200248007B8007C00F704700005813002010B54B490868002802DA4A4B01221A70022290430860484800694549C1
:40598000C00B4031096A0246C907C90F0A4259D0012000F0EDFA3F480E216C30FDF7C6FA3E4820218430FDF7C1FA3C4814219C30FDF7BCFA3948FF21C131A430FDF7B6FA71
:4059C0003648FF212F31B030FDF7B0FA33483449BC30FDF7ABFA31483249AC30FDF7A6FA30492E48491CB430FDF7A0FA2B482E49B830FDF79BFA29482C49CC30FDF796FAC3
:405A000026482B490830FDF791FA24482949A830FDF78CFA214828498830FDF787FA1F4826498C30FDF782FA1C481921C9029030FDF77CFAFDF77CFAFDF72CFBC0B20228E0
:405A400012D01FE000290BD0002101420AD0114801216030FDF76AFA0120FDF7FBFA97E70121F2E7FF2010BD15491648FDF75EFA14481549001DFDF759FA12480021083058
:405A8000FDF754FA54200449C043891C0870002010BD000000F02E40E80E002000002E40320300002F3F00003102000010520000EC160000FA12000031D000003AE3000090
:405AC0009956000080012E40F80F000070B50646581C80B245086D00002408E0304600F0C1F81055000A1119A41C4870A4B2AC42F4D3D80705D0D0182038D15CC47FD4541D
:405B0000C17770BD30B50A4C002100195B1E07E0541864782502545C2C430480891C89B29942F5DB994201D1515C018030BD000000102E4010B5FF2000F01AFA0F49FF20E9
:405B400048700E481021801D41800121417001700A490020C91C4870FFF704FF04000AD100F02EF907210648FDF7DEF9044807211830FDF7D9F9204610BD0000E80E002039
:405B8000CC112E4070B5002405465B1E0AE0284600F068F8010A161971702D1D1055A41CADB2A4B29C42F2DB9C4203D1284600F059F8105570BD000070B500210A4D5B1EF2
:405BC0000AE0541864782602545C344346193480001D891C80B289B29942F2DB994202D1515C4019018070BD00102E40F0B50599091FCFB200217E1E0BE054186478250257
:405C0000545C2C43164D45192C80001D891C80B289B2B142F1DBFC0712D01C78515C24020F4A0C4381180C809C785D78001D210280B2294384182180001D80B2D9780CE041
:405C400059781A7809021143054A84182180001DD9789B78090280B2194380180180F0BD00102E40014940180088704700102E4010B50B490020487000F0A2F8002000F08E
:405C80009DF9002000F08AF907210648FDF74CF9044807211830FDF747F9002010BD0000EB0E0020CC112E4010B50C48007801280FD100F0E7FF00F0DDF8002804D1084849
:405CC000016A490849000162054802213030FDF72DF902490020C91E087010BDEB0E002040F02E4010B50B46062812D006DC01280CD0032801D1FFF7BBFF10BD0A28FCD07F
:405D00000B28FAD105480078107010BDFFF712FF10BD1146184600F06DF910BDEE0E0020F8B5244DAC6A0127A007234E002816DA307806280ED1286A384328621F480069E3
:405D4000F903084381B21D481030FDF7EFF8042000F00EF9174802212830FDF7E5F8E00718D000F0EDFF01280FD1002001F04CF8062000F0FDF81049FF20C91E4870707850
:405D8000002802D1686B384368630A4801212830FDF7CAF8E0050BD53078042802D1052000F0E6F80348FF2101312830FDF7BCF8F8BD000040F02E40EB0E002000002E4077
:405DC00010B503212348FDF7B1F80120FDF73EF920483038406A204C80076178800F890001431C480C38FDF7A1F86078002808D0401E022181401820FDF79AFBC0000838B4
:405E000000E0B82081B21548FDF790F81348032109021438FDF78AF810481149B830FDF785F8612189010F48FDF780F80D480321001FFDF77BF80C490C48FDF777F80B481A
:405E40000B496038FDF772F8084801218838FDF76DF810BD70F02E40EE0E0020D8102E4090890000041E2E40FF0F000058122E40209000000449012009684907490F02294F
:405E800000D000207047000000010B4000B5FFF7F1FF002805D009480168C908C900016000BD0748016A490849000162054801690122D2039143016100BD000000010B4040
:405EC00040F02E4000002E400848017806290BD140780749002803D1486B400840004863C86A01221043C86270470000EB0E002040F02E400148007870470000EB0E002007
:405F000002484078022800D001207047E80E002000B50300FFF75EF8080D050D0B070507090D012000BD032000BD042000BD022000BDFF2000BD0000074A9168D26889B2FF
:405F4000064B92B2994204D105498A4201D1012100E000210170704780002E4033D000003FE300000149487070470000EB0E002010B50446FDF776F8072C01D9FF2C01D145
:405F800002480470FDF76AF810BD0000EB0E00200149487070470000E80E002010B5064A012805D01921C9021046FCF7BFFF10BD1D21C902F8E7000090002E4010B50A4A2D
:405FC000141D012808D009491046FCF7AFFF08492046FCF7ABFF10BD04491046891CFCF7A5FF0349491DF3E788002E4031D000003AE3000070B50C460546FDF74BF8C0B21B
:4060000002280E49287804D0FF2810D04C280CD810E0FF2809D10A4AD0680004800F032801D0087807E09069000A553803E00878207070BD4F382070087070BDEA0E002015
:4060400000002E40F0B50122002834D0002932D00424420600D00524792342065B06D21800D0641C034600221EE00C2516466E43124D00277519AF72104F002ABB51696071
:4060800007D0661EB24209D10D4E86197606760E05E05E06760E8027BE1B00E080269B198919521C2E81D2B2A242DED303480549006B002288611046F0BD0000E415002033
:4060C00079020000F40E002018B50020694608700A48006900280ED0132149014018047E684604704F21C900054800F0A9F8A04201D0012018BD002018BD0000F40E0020DD
:4061000068130020F1B582B000206A4610700299002903D100F0C2FE00283AD11E4F00240C2126464E43F519A97A01291DD11B49B859896988420BD14F21C900786800F007
:406140007FF869460870132279685201891808762A89B9596868FCF7A3FE00280CD028200299002905D0282803D0641CE4B2062CD6D3641CE1B20AE00021A972F0E70C2299
:406180004A43D219927A012A04D0491CC9B20629F5D3FEBD2820FEBDE4150020F40E0020074900200C2242435218927A012A05D0401CC0B20628F5D3002070470120704780
:4061C000E4150020F8B50F000446164609D01A4D1A496868A04202D94018A04201D38E4201D90120F8BD39462046FDF7FDFC002820D0324639462046FDF705FD0E49F0B230
:40620000012620318E7600210C220B4653430A4A9A1813895568EF18A74207D9641B1B1B9672834206DAC01A1469C0B2491CC9B20629E9D30020F8BDE4150020790200001E
:40624000034610B50020024604E09C5C2018521CC0B292B28A42F8D310BD000070B500F05FF8084C064A216907480D46FDF7CBFC05492846FFF7E6FEFFF726FF207070BDA7
:4062800079020000F40E002068130020002070470020054A002902D0012902D002E0906000E0D06000207047F40E002070B5084C154608460549E26889182A46FDF7A3FC30
:4062C000E0684019E06028B270BD000068130020F40E00203EB50A226946FFF7E7FF044606480A2200686946FDF77EFC002802D00020C0433EBD20463EBD0000F80E002067
:40630000002802D0044A914201D2FF20704703494A6108610020704779020000F40E0020024800218160C16070470000F40E002070B5074C15460548A26880182A46FFF757
:4063400041FFA0684019A06028B270BD68130020F40E002010B503490A220968FFF7E8FF10BD0000F80E002010B50F4A002313600E4A13600E4B18600E4801600E490120BB
:4063800008600E490860000290600E490C4808600D4914300860FF381538506000F0BCF800F0CAF9002010BD280F0020100F00203C0F0020400F00202C0F00201C0F002021
:4063C0002C170020200F0020340F0020014610B50020002910D0094B1A689C685118A14209D25868196080188A0704D08A07920F891A091D196010BD002010BD100F0020AF
:40640000F8B50024164E671E321F3D463168136806E01422624310328A58521C1BD0641C9C42F6D36A1C14D02C461422544322460C3288500C214843FFF7C8FF31680028F8
:4064400008510AD031680020103408517068401C70602846F8BD2546E4E73846F8BD0000200F0020F3B50026F64381B000281BDB1E490968884217D80299002914D01B4FBB
:40648000142204463F1D54432546396810354859401C09D0FCF7E6FD38682F1F4159C359994203DBFCF7DAFD3046FEBD214608310091465801590C20704308180C22029923
:4064C000FDF7A1FB0948761C001D0068C159B14200D100260549009A091D865008684159491C4151FCF7BAFD0020FEBD1C0F0020002803DB07490968884202D90020C0435C
:40650000704704491422091D0968504310300858704700001C0F0020F0B500200D4A451E0346171F50600FE014260146714314680E1DA3510C46166808343351166808349E
:4065400035511468401C635039688842ECD30020F0BD0000200F0020F3B50026F64381B0002841DB2349096888423DD8029900293AD0204F142204463F1D544325463968D0
:4065800010354859401C2FD0FCF76CFD3868415900292BD0211D009146580C21005971430F46C1190C220298FDF72DFB11480021001D0068761C00590C34C0190160416021
:4065C00081600C48001D00680159B14200D100260849009A091D865008684159491E4151FCF73CFD0020FEBD3046FEBDFCF736FDFAE700001C0F0020FEB504460D460020B9
:406600001E49089E0860471E009001900290002C11D0486885420ED2002A0CD0002E0AD0642E08D808460C3001681C2068430C18207A002801D03846FEBD012022602072EA
:406640001846FFF7DDFE6060401C13D06681A6810A4827610C3067610179A94200D205710021684601810A462846029B00F040F82846FEBD00202072DDE70000280F002089
:4066800038B50124009400F039F838BDFEB50027164EFF433D4600240EE01C20316860430818017A002906D04068FFF721FF002801D0254603E0641C3079A042EDDA681C9C
:4066C00012D01C2130684D434419FCF7CBFC69466068FFF741FF0546FCF7C0FC002DD9D1216868468847D5E7FEBD0000340F002038B50024009400F001F838BD1FB5002265
:406700000C49541E0A60002811DB496888420ED808491C220C31096850430818406801A9FFF7A0FE401C02D0002004B010BD2046FBE70000280F0020F0B50021114A4D1EE3
:40674000174611710C3F0B46BD6016E008461C2460431668041D355114680646235014680836A3551468361DA353044616680A34335318301468491C255078688142E5D3FE
:406780000020F0BD340F002038B500210091002811DB0F49097888420DDA0D4D04010C3529680859002807D0201D0818694600F06FF9002801D0002038BDFCF753FC286897
:4067C0000F34015D491E0155FCF748FC009838BD440F0020F7B582B0002502986E1E06602E48D21C024017462D4A2C4610460C380178106805E02301C358002B0FD0641C50
:40680000E4B28C42F7D3711C28D03401211D40180191039900F02AF900281FD101E02646F1E71F48016820460C300F521C480399026820460E301154194803990268204649
:406840000F3011540398784300F0A0F8144900280968085102D00024009011E001251AE00F48016801980818009900F02CF9002801D0012502E00098C0190090641CE4B271
:4068800003988442ECD3002D05D10298066004480179491C0171284605B0F0BDFCFF0000500F0020F8B50D4600216A468C461180002839DB23490978884235DA214B040127
:4068C0000C3319680A59002A2ED020460C300B5A801C0E5C184670438018954224D3854222D2002006E007465F43BF18AF4206D0401CC0B2B042F6D36046002814D0114EE1
:40690000271DC8190C366A46294600F006F900280AD168460088012808D030682946C01900F0D1F8002803D00120F8BD0020F8BDFCF798FB30680F34015D491C0155FCF7FC
:406940008DFBF3E7440F0020F8B50F46002400F031F8002817D10C4900220B460C334A600EE021011D680E466A501D680C36AA53B61C1D680F31AA551D68641C6A54E4B2EC
:40698000BC42EED31A71F8BD440F002000280BD0C01C074A81085068890053884118994203D89368516018187047002070470000440F0020F8B5064600200F4D0090297006
:4069C0000C0121466846FEF7A3FB00280CD129460C3100980860301B001F84B221466846FEF796FB002801D0FF20F8BD6C800098A8600020F8BD0000440F0020F8B5002880
:406A000027DB19490978884223DA174C05010C342168485900281CD028460C30085A009028460E300E5C401C0E5420682F1DC01900F064F800280CD12068002445590EE01D
:406A4000094829460C300068C01900F03CF8002801D00120F8BD00982D18641CE4B2B442EED30020F8BD0000440F002030B50D4604000BD0A800FFF789FF6060002805D0FA
:406A800000202570C0436080002030BD012030BD70B50D46040005D0002D03D00220205E002801DA012070BDFCF7DCFA0221615E60688900405828606088401E6080FCF7AC
:406AC000CDFA002070BD70B50D46040007D0002D05D002212078615E401E814201DB012070BDFCF7BFFA6088401C00B26080616880000D50FCF7B2FA002070BD10B504008B
:406B000009D0227800216068FDF786F80020C0436080002010BD012010BDF0B500231D46002802D00224045F0AE00120F0BD46689F00F6598E4201D1012503E05B1CDBB2F8
:406B40009C42F4DA15700020F0BD00000148007870470000580F00207CB505460024FEF759F8A8796946087000A8062229460130FDF749F80021684605F036F90C2806D048
:406B8000072806D01F2806D0122806D006E0022404E0042402E0272400E0012420467CBD10B50024FEF736F80021084605F020F90C2800D10224204610BD10B502280BD009
:406BC000032802D0042809D102E000F0C1F905E000F06CFAFF2801D100F07CFAFFF78AF9FFF796F910BD10B500F0A4FAFFF782F9FFF78EF910BD70B504460025FEF70AF808
:406C0000002C06D0A079012803D8214602F01CFF00E00125284670BD01460120002902D0502008800020704701460120002905D0034854220078504308800020704700005D
:406C40005A0F002010B502460D49FE204870032410460EF06FF8002810D10EF013F800280CD105F09DFE002808D100F059FC002804D105F05FFB002800D10024204610BDE7
:406C8000580F002002480021018280210180704700102E407CB505460024FDF7BBFFA8796946087000A8062229460130FCF7ABFF0021684605F0AAF80C2802D01F2802D0E0
:406CC00002E0022400E0072420467CBD70B50025044600280ED0A07901280BD8FDF79AFFA0790028204602D003F08EFA03E003F063FA00E00125284670BD0000014610B5C2
:406D00000120002904D006220248FCF77CFF002010BD0000640F002001460120002903D00878024908700020704700005A0F002010B5FFF7DFF8012801D1FFF7E1F810BDA5
:406D40000148007A704700006818002038B504460120002C20D0617801291DD800290BD0FF25E535FDF756FF0C4828180088C0B22070072803D00EE0FF25CD35F2E70020D5
:406D8000694608706846FFF7D7F869460878012801D108202070002038BD000000102E4010B507480024807B002806D00448203002F0F8F9012800D1FE24204610BD0000C5
:406DC000A8170020014A002192681047580F002008B500226B461A7026280CD0094A342852680BD0352805D1900703D50021352005F0B2FE08BD19462620F9E7D007F9D041
:406E00003420F5E7580F0020014908727047000068180020F8B504460120002C26D06178012902D92278092A20D8002905D0FF25E5352078092803D004E0FF25CD35F8E7E2
:406E400008202070FDF7E6FE2078114F114E08280DD00020FFF7B2F870780128207810D00D4969180880FE2070700020F8BD0120FFF7A4F80720B8810549203188800120C8
:406E8000F2E7B8810248217820308180EBE70000C0112E40580F002000102E4010B509480024807B00280BD0FFF724F8062801D0032800D12824FFF773FFFE2800D128243A
:406EC000204610BDA817002070B50E46050001D0002400E00C4C002C11D0E28A500609D5D107C90F022003F02DFAE08A40218843E08204E0D107C90F012003F023FA314608
:406F0000284602F0FDFE70BDC8170020F8B50546002004460D4E009013E022466946284601F052F90098002801D00DF0E5FEA878214602F0C7FCA878214602F0B5FC641C72
:406F4000E4B2308AA042E8D8F8BD000094180020F8B54E4CFEF7CEFF012847D14C480078002843D002F054FE00283FD004F0C2FB00283BD0474E7078C00703D000F040FD6A
:406F8000012833D0307E00287DD17078002500285BD0000706D540488089070B00F02EF9384370D13B484178684604F0EBF9217A3A4CA2788918C9B2814262D802F028FE9B
:406FC000002860D0344860300789324E203602F069FC6846008802F093FC02F02FFD30490988884203D10120FEF7C2FF4BE02D49012008702748807B00281DD0002F1BD049
:407000004036F07E002817D123486030008821494000C031498981420AD26078002807D103F0BEF92049088A03221202104308822078002800D0257002F098FC0120FEF779
:4070400091FF00F049FC174C15E002F0E1FD002819D0102402F0F2FC214602F0DBFB02F04FFC104C0120207002F080FC0020FEF779FF00F031FC20780128B4D1FEF706FF2D
:4070800025700020F8BDFF20F8BD00009C170020E80E0020A8170020A0102E407E0F0020900F00206A0F0020E0112E4010B50848FF244078002809D102F0AAFD012805D1BE
:4070C000FEF7F2FD0720FEF753FF0024204610BDA817002038B5FEF70DFF012801D0002038BD02F095FD00280AD0114C6078C00703D000F085FC012802D0207E002801D0B3
:40710000FF2038BD617800290FD0684604F03AF9022806D96846008802F0F2FB012002F02FFC0320FEF724FFD9E70020F7E70000A817002038B51E4CFEF7DCFE042813D01C
:40714000052811D0062812D003282AD007280AD100206946087002460120FEF7C3FDFEF7C9FE0128FBD138BD00F0D6FB38BD02F01FFC00F0D1FB02F09BFC8007800F02286F
:40718000F4D10C4841880029F0D05B21095D0029ECD101210170A07D0140022003F0D2F838BD02F009FC0120FEF7E2FE38BD0000C81700207E0F0020F8B50646002403F0D9
:4071C0002FF90546304603F045F903460A480021068A0DE001228A401046174628401F40002803D0002F01D1224394B2491CC9B28E42EFD82046F8BD9418002070B5002586
:407200002C460A4E03E0002C01D0002000E030460079002803D02046FFF7CEFF0543641C2406240EEFD0284670BD0000C81700201CB50020694648706846FFF787FD01AAE9
