:400000000080002011000000652C0000652C000080B500AF02F05AFE80B500AF2F4B12221A6004F0C7FE2E4B180005F03DF8012004F0D0FE302004F0EDFB2A4B2A4A1A60CD
:400040002A4B8022D2051A60294B294A126802210A431A60274B284A1A60284B00221A60274B274A126808218A431A60FA23DB00180004F0C1FC234B180004F075FD224B79
:40008000C82252011A60214B214A1A60214B802212061A60204B802212031A601F4B40221A601F4B1900082004F0F0FC082004F013FD0E4B1B4A1A601B4B802212031A6030
:4000C000C046194B1A6880231B031340F9D1164B802252021A60C046BD4680BD30001040001BB70004010B40060000800C020B4078002E407C002E406A2D000064F02E4075
:400100006CF02E40DC050000000301400000014040FF008008010B4000010B4004010140B94F00000000014E10020B4080B582B000AF72B6394B00221A60FB1D00221A7014
:4001400022E0FB1D1A7813005B009B185B00344A9B183B603B681A78597809020A43997809040A43DB781B06134318003B681A795B791B0213439BB2190002F04FFDFB1DA7
:400180001A78FB1D01321A70FB1D1B78012BD8D9244BEE2212061A60234B992212041A60224B992212041A60214B992212041A60204B992212041A601F4B992212041A60AC
:4001C0001E4A1E4B1B78DBB206210B43DBB213701B4BD82212041A601A4B20221A601A4BC42292021A60194B20221A60184B80221A60184BB022D2031A60174B80221202E4
:400200001A60164BD82212041A60FFF705FF02F015FDC046BD4602B080BDC0466CF02E40DCB50100000002400001024000500F4010500F4020500F4030500F4000700F40E1
:400240000800044000010440080104401801044000020440080204400C0204400803044010B5064C2378002B07D1054B002B02D0044800E000BF0123237010BDC0110020AC
:400280000000000074970100084B10B5002B03D00749084800E000BF07480368002B00D110BD064B002BFBD09847F9E700000000C411002074970100A80B00200000000080
:4002C00090B589B002AF786039607A6883235B009A4200D99BE27B689A00E14BD3181B689F46E04B180006F093F800F08FFD012004F098F893E2DC4B180006F089F88EE2CD
:400300003B681B781A00D94B1100180006F004F885E2D74B180006F07BF880E23B681B781A00D44B1100180005F0F6FF77E2D24A3B681000190005231A0005F0DCFFCE4BD4
:400340001B781900CC4B5B781A00CB4B9B781C00C94BDB78C9480093230005F0DDFF5EE2C74B180006F054F8C64B180006F050F8C54B01221A70C54B00221A60C44BC54AEF
:400380001A60C54B00221A7049E23B681A68C34B1100180005F0C0FF41E2C14B180005F0BBFF3B681B78182B45D89A00BD4BD3181B689F46BC4B180006F02AF844E0BB4BEA
:4003C000180006F025F83FE0B94B180006F020F83AE0B84B180006F01BF835E0B64B180006F016F830E0B54B180006F011F82BE0B34B180006F00CF826E0B24B180006F0C6
:4004000007F821E0B04B180006F002F81CE0AF4B180005F0FDFF17E0AD4B180005F0F8FF12E0AC4B180005F0F3FF0DE0AA4B180005F0EEFF08E03B681B781A00A74B1100C8
:40044000180005F069FFC0468F4B05221A70E6E13B681A68A24B1100180005F05DFF8A4B03221A70DBE1844A3B681000190005231A0005F040FF804B1B7819007E4B5B78C0
:400480001A007D4B9B781C007B4BDB7895480093230005F041FFC2E1934B1B781A00934B1100180005F038FF914B1B781A000F231340002B15DD8C4B1B788D4A1100180054
:4004C00011F004FD03001A008A4B1A80894B1B88002B09D0884B180005F01EFF02F016FB02E0694B05221A70012003F073FF012003F098FF002004F045F990E13B681B7882
:400500001A007E4B1100180005F006FF00F07EFC002003F05FFF012003F084FF012004F031F97CE13B687B617B695B88180005F07DFB031C181C05F031FE0022704B05F093
:40054000B3FB03000C006F491A002300080005F0E3FE64E13B681B88002B01D16A4B00E06A4B6B4A1900100005F0D6FE57E1424A3B681000190005231A0005F0BCFE3E4B68
:400580001B7819003C4B5B781A003B4B9B781C00394BDB785F480093230005F0BDFE3A4B04221A703BE13B681B781A005A4B1100180005F0B1FE32E1584B180005F028FF85
:4005C0002DE1574B180005F023FF02F05DFA554B1B78042B25D1544B180005F019FF002003F0F8FE012003F01DFF012004F0CAF8C04603F0AFFF01004C4B1A6880231B0226
:40060000134001D0012300E00023CB18002BF0D102F0E0FB04F0ACF804F048F804F046FBFCE0404B1B78032B00D0F7E0002003F0F9FE012003F0CEFE012004F0A3F8EDE09C
:400640003B685B7819003B681B781A00384B180005F062FEE3E0374B180005F0D9FEDEE0C49E01007897010090970100B0970100CC970100E8970100942300200498010089
:40068000449801006C980100DC1100208423002090230020A0860100992300209C980100D0980100E0A20100F4980100FC980100149901002C990100489901006499010017
:4006C0007C990100A0990100B8990100CC990100E0990100F49901000C9A0100209A0100289A0100809A010024240020DC9A0100E00D002088230020049B0100249B010093
:400700000000F43F509B0100889B0100949B0100A09B0100CC9B0100109C0100349C01005C9C01001C240020889C010008022440949C0100CC9C01003B689B891A003A4B38
:400740001100180005F0E8FD384B00221A8011E03B685B68354A12889B181B781A00344B1100180005F0D8FD304B1B8801339AB22E4B1A803B681A892C4B1B889A42E7D849
:400780002C4B180005F044FE49E02B4B180005F03FFE3B683B613B69180000F0E3F83EE0264B180005F034FE39E0254B180005F02FFE34E0234B180005F02AFE2FE03B68CA
:4007C0005B881A00204B1100180005F0A5FD3B68FB60FB68180000F0C5F820E01B4B180005F016FE1BE01A4B180005F011FE16E0184B180005F00CFE11E0174B180005F0D8
:4008000007FE0CE0154B180005F002FE07E07A68134B1100180005F07FFD00E0C046C046BD4607B090BDC046EC9C01008C230020249D01002C9D0100309D0100509D010000
:40084000749D0100989D0100BC9D0100F49D01001C9E0100449E0100649E01008C9E0100AC9E0100F0B5474680B494B004AF08243C1920606160A260E36050230822944652
:40088000BC4463441B78012B11D1304B180005F0BFFD0823FB181B881A002D49102308208446BC446344180005F0BCFD3FE0502308229446BC4463441B78022B2BD1254B40
:4008C000180005F0A5FD0823FB181B7B1E000823FB189B7A7B600823FB181B7A1A000823FB189B791C000823FB181B781D000823FB181B7998461849102008239C46BC4492
:400900006044434603930295019400927B68320005F088FD0BE0502308229446BC4463441A780E4B1100180005F0F6FC08E010230822BA18D2180A4B1100180005F0ECFC47
:40094000BD4610B004BC9046F0BDC04644A301005CA301006CA3010084A30100A8A30100C8A30100F0B59FB002AF78607B681B881A0032490C23FB18180005F053FD0C232D
:40098000FA182F4B1100180005F0C6FC7B689B781A002C490C23FB18180005F043FD0C23FA18274B1100180005F0B6FC7B689B881A0025490C23FB18180005F033FD0C23F8
:4009C000FA181F4B1100180005F0A6FC7B689B7D1A001E4B1100180005F09EFC1C4B180005F016FD7B68997D7B6806220091995A9818408800040143396099188888C9880B
:400A0000090401430E00991808894989090401430D009B189A89DB891B0413431C00386831002A002300FFF71DFF0A4B180005F0EFFCC046BD461DB0F0BDC046DCA3010094
:400A400008A401000CA4010024A401003CA4010054A4010068A4010080B500AF094B1B78032B0BD1084B1B7801225340DAB2064B1A70054B1B78180003F0D4FCC046BD46C9
:400A800080BDC0461C240020AC0B002090B583B000AF234B1B78032B03D0214B1B78022B39D1FC1D032006F0F5FD03002370BC1D04F003FB03002370FB1D1B78032B1ED17A
:400AC00008F082FE0300042B04D008F07DFE0300062B1BD103F03EFD0100124B1A6880231B02134001D0012300E00023CB18002B02D104F0A5F809E004F088F806E008F01F
:400B000063FE0300022B01D004F080F8BB1D1B78180004F0D6FAC046BD4603B090BDC0461C2400200802244080B500AF684B1B78032B05D0052B00D1C1E0012B65D0C3E0F0
:400B400003F094FD0300DAB2624B1A70614B1B78002B04D1604B1B78002B00D1B1E05D4B1B78002B0AD15C4B1B78002B06D05A4B1A78584B1A70584B00221A70554B1B78BF
:400B8000792B1CD1554B180005F042FC544B1B7801220021180011F087F903001A00514B1A80504B1B88002B05D04F4B180005F0B3FB01F0ABFF464B02221A7081E0454BF9
:400BC0001B786E2B1CD1494B180005F021FC444B1B7800220021180011F066F903001A00404B1A803F4B1B88002B05D03E4B180005F092FB01F08AFF354B02221A7060E0C7
:400C00003B4B180005F004FC5BE003F02FFD0300DAB2304B1A702F4B1B78002B53D02D4B1B782F2B25D92B4B1B78392B21D8294B1B78303B1A002F4B1B685A432E4B1B68ED
:400C4000D2182D4B1A602B4B1B680A21180004F077FE03001A00274B1A60284B1B780133DAB2264B1A701B4B1B78180003F05CFC03E0234B180005F0CBFB204B1B78062B7A
:400C800021D1204B180005F0C3FB154B18781A4B1B680122190011F007F903001A00114B1A80104B1B88002B05D0174B180005F033FB01F02BFF064B02221A7003E0C04646
:400CC00002E0C04600E0C046C046BD4680BDC046DC1100208A230020DD11002084A401002424002088230020A0A40100C8A40100E4A40100902300208423002099230020E5
:400D00000CA501002C9D010024A5010080B500AF62B603F0C9FB334B180005F079FB012003F058FB012003F07DFB012003F02AFD2D4B180002F092F803001A002B4B1A8054
:400D40002A4B1B88002B05D0294B180005F0E4FA01F0DCFE01F068FE00F0E4F901F03AFC244B1900022004F0DFF8022004F0FCF8214B1B78032B05D01F4B1B78012B01D06B
:400D8000FFF784FE06F0A0FC1C4B1B78022B26D101F0B2F9FFF7C8FE194B1B78002BE7D003F0D8FB0100174B1A6880231B02134001D0012300E00023CB18002BD8D100204D
:400DC00002F0E4F803001A00084B1A80074B1B881A000D4B1100180005F09EFAC8E701F073FDC5E74CA50100C10200008823002084A50100590A0000DC1100201C240020C8
:400E000008240020080224409CA5010080B584B000AF002002F088F903001A001C4B1A801B4B1B88002B06D01A4B180005F074FA01F06CFE28E0184B180005F06DFA3B1D71
:400E4000180006F02FFC0E23FB1806221A8012E00E23FB181B88013B3A1DD35C1A000F4B1100180005F058FA0E23FB181A880E23FB18013A1A800E23FB181B88002BE7D1EB
:400E8000074B180005F0C4FAC046BD4604B080BD88230020C0A50100E0A5010000A601002C9D010080B582B000AF0200FB1D1A70FB1D1B78062B27D89A001A4BD3181B68F1
:400EC0009F46194B180005F027FA22E0174B180005F022FA1DE0164B180005F01DFA18E0144B180005F018FA13E0134B180005F013FA0EE0114B180005F00EFA09E0104BE8
:400F0000180005F009FA04E00E4B180005F004FAC0460D4B180005F0FFF9C046BD4602B080BDC046BCA6010030A6010044A6010054A6010060A6010078A6010090A601007B
:400F400098A60100A0A60100ACA6010080B584B000AF02003960FB1D1A700A23FB18012252421A800E23FB1800221A7045E00E23FB181B783A68D3181A780C23FB181A80CB
:400F80000F23FB1800221A702BE00A23FA180C23FB1812881B8853409BB21A00012313400AD00A23FB181B885B089AB20A23FB1819494A401A8006E00A23FB180A22BA18B0
:400FC000128852081A800C23FB180C22BA18128852081A800F23FB181A780F23FB1801321A700F23FB181B78072BCED90E23FB181A780E23FB1801321A700E23FA18FB1DD7
:4010000012781B789A42B2D30A23FB181B881800BD4604B080BDC0460884FFFF90B583B000AF02003960FB1D1A70104B1A6880235B01134014D0FB1D1B783A68D4183A6861
:40104000FB1D1B7811001800FFF780FF03001900200002F019F9FB1DFA1D127802321A70FB1D1B781800BD4603B090BDD023002090B585B000AF02003960BB1D1A800F232F
:40108000FB1800221A70224B1A6880235B01134036D0204B180005F03FF9BB1D1B8802333A689288934223D13B681A68BB1D1B88D318180002F0D4F803001C00BB1D1B884A
:4010C000DAB23B681B6819001000FFF73FFF03009C4208D00F23FB1881221A700E4B180005F096F90CE00D4B180005F091F907E00F23FB1880221A70094B180005F088F9AC
:401100000F23FB181B781800BD4605B090BDC046D0230020D8A60100E4A60100F4A60100F8A6010080B582B000AF1F4B180002F011FC3B001A000621012002F069FC0300CF
:401140001A001A4B1A80194B1B88002B06D0184B180005F0E1F801F0D9FC21E03B001B781A00144B1A60134B1B683A00527812021A43104B1A600F4B1B683A00927812041B
:401180001A430C4B1A603B00DB780F221340DAB2084B1A713B00DB781B09DAB2054B5A71C046BD4602B080BDB91100008823002008A70100D023002090B585B000AF7860DB
:4011C00039607B684D3BFF3B052B01D900F0B6FD9A00DA4BD3181B689F460E23FB1800221A800D23FB1800221A703B689B781800FFF758FED24B180005F08EF8D14B0022FB
:401200001A8012E03B685B681B68CE4A12889B181B781A00CC4B1100180005F07DF8C94B1B8801339AB2C74B1A803B685B689A88C44B1B889A42E5D8C44B180005F0E8F8CB
:401240003B689B78052B00D174E0062B00D1C4E1032B01D000F053FD3B685B680D22BC1819000920FFF704FF030023703B685B681B68180001F0F4FF03001A00B44B1A80A8
:401280003B685B681B689A78B14B9A703B685B681B68DA78AE4BDA703B685B681B681A79AB4B1A713B685B681B685A79A84B5A713B685B681B689A79A54B9A713B685B68DB
:4012C0001B6807331B785AB2A14B1A723B685B681B6808331A789E4B5A720D23FB1804221A70984B00221A8013E0964B1B881A00984B9A56964B1B7A5BB29A4203D10D2356
:40130000FB1800221A708F4B1B8801339AB28D4B1A808C4B1B88272BE7D90D23FB181B78002B01D100F0E8FC8B4B180005F070F800F0E2FC894B1B7802221343DAB2874BF4
:401340001A70874B180004F0E7FF3B685B681B681A78844B1A70834B1B78022B0DD002DC012B05D018E0032B0CD0042B0FD013E07D4B180005F04CF813E07C4B180005F01E
:4013800047F80EE07A4B180005F042F809E0794B180005F03DF804E0774B180005F038F8C046764B180004F0B7FF3B685B681B685A78734B1A70734B0122DA70704B1B781D
:4013C000062B00D902E19A006F4BD3181B689F466E4B180005F01CF8FEE06D4B180005F017F8F9E06B4B180005F012F8F4E06A4B180005F00DF83B685B689B88022B00D8FE
:40140000E9E0604B0522DA70E5E0644B180004F0FFFF634B180004F07FFF3B685B689B88052B1DD13B685B681B689A785D4B1A705C4B1B78012B0ED13B685B681B68DA78BD
:40144000584B5A70574B5B781A00574B1100180004F062FFC0E0484B180004F0D9FFBBE0484B0522DA70514B180004F0D1FFB3E04F4B180004F0CCFF494B180004F04CFF33
:401480003B685B689B88052B1DD13B685B681B689A78444B1A70434B1B78012B0ED13B685B681B68DA783F4B5A703E4B5B781A003D4B1100180004F02FFF8DE02E4B18006F
:4014C00004F0A6FF88E02F4B0522DA70374B180004F09EFF80E0374B180004F099FF304B180004F019FF3B685B689B88072B65D13B685B681B689A782A4B1A70294B1B78BE
:40150000012B16D13B685B681B68DA78254B5A703B685B681B685A79224B9A70214B5B781900204B9B781A00234B180004F0F4FE52E0114B180004F06BFF4DE0F0AF0100C3
:4015400038A701008C23002048A7010050A701009C23002008A6010054A70100E011002064A70100E111002070A7010088A70100A0A70100B4A70100D8A70100E4A7010023
:40158000E2110020B823002008B00100F0A70100F8A7010008A8010018A8010028A8010040A80100DC2300204CA8010060A801006CA8010088A80100A8A80100EB4B0522EF
:4015C000DA70EB4B180004F023FF05E0E94B180004F01EFF00E0C04691E33B685B681B681A78E54B1A70E54B01229A70E24B1B781B2B18D89A00E24BD3181B689F460E23CE
:40160000FB1801221A8012E00E23FB1802221A800DE00E23FB1803221A8008E00E23FB180B221A8003E0D54B02229A70C046D34B9B78012B0CD13B685A680D23FC180E23B8
:40164000FB181B8811001800FFF712FD030023700D23FB181B78002B00D04FE3C94B1B7801221343DAB2C74B1A70C74B180004F053FEC14B1B781B2B00D937E39A00C34BB6
:40168000D3181B689F46C24B180004F0C1FEC14B1B781A00C04B1100180004F03DFEB74B03221A70BB4B1A78B44B5A7023E3BB4B180004F0ADFE3B685B681B685A78B54B53
:4016C0001A70B44B1B781A00B54B1100180004F023FEAA4B01225A700DE3B24B180004F097FEA64B04225A703B685B681B680133180001F0B5FD03001A00AB4B1100180011
:4017000004F00AFE3B685B681B680333180001F0A7FD03001A00A54B1100180004F0FCFD3B685B681B6805331B781A00A04B1100180004F0F1FD3B685B681B6806331800C0
:4017400001F08EFD03001A009A4B1100180004F0E3FD3B685B681B680833180001F080FD03001A00944B1100180004F0D5FD3B685B681B680A331B781A00904B1100180082
:4017800004F0CAFDB7E28E4B180004F041FE3B685B681B680133180001F062FD03001A00884B1100180004F0B7FD3B685B681B680133180001F054FD03001A00824B9A422E
:4017C0000CD16E4B1C221A706C4B05225A706B4B05229A707D4B03221A708CE23B685B681B680133180001F03BFD03001A00784B9A4206D1774B1B8801339AB2754B1A80E7
:401800000AE03B685B681B680133180001F028FD03001A006F4B1A80584B06221A706E4B180004F0F5FD6D4B4E21180001F02CFD6B4B180004F0ECFD6A4B0521180001F00E
:4018400023FD694B180004F0E3FD4C4B06225A71664B180004F0DCFD654B0521180001F013FD5C4B1B881A00624B1100180004F053FD584B1A88604B1100180001F004FD10
:401880005E4B180004F0C4FD3C4B00229A724F4B0B221A702FE25A4B180004F0B9FD594B1B881A00584B1100180004F035FD334B09221A70534B1A88484B1100180001F0C1
:4018C000E3FC18E2514B180004F0A2FD3B685B681B680133180001F0C3FC03001A004C4B1A804C4B474A1A60494B1B881A004A4B1100180004F010FD204B07225A70FAE1AA
:40190000464B180004F084FD3E4B5B881A003E4B1100180004F000FD184B0C221A70394B5A882E4B1100180001F0AEFCE3E13C4B180004F06DFD3B685B681B6801331800AC
:4019400001F08EFC03001A00314B1A80314B354A1A602F4B1B881A00334B1100180004F0DBFC064B0A225A70C5E1C046B823002060A80100D8A70100D8230020A82300201E
:4019800024B00100E011002064A7010094B00100C0A80100B80B0020E0A801000CA901002CA9010040A9010060A901008CA90100A8A90100C4A90100E0A901000CAA010064
:4019C0002CAA01004CAA0100FEFF0000E3110020FFFF0000BA0B002080AA0100A9230020B4AA0100AB230020DCAA0100F4AA0100AE2300201CAB0100B023002048AB0100FB
:401A000064AB0100BC0B002084AB0100B4AB0100E4110020B40B0020D4AB010004AC010024AC0100BE0B002044AC0100C94B180004F0EEFCC84B9B881A00C84B11001800B9
:401A400004F06AFCC64B0F221A70C34B9A88C54B1100180001F018FC4DE1C34B180004F0D7FC3B685B681B680133180001F0F8FB03001A00BD4B1A80BD4BBE4A1A60BB4B4F
:401A80001B881A00BC4B1100180004F045FCB44B0D225A702FE1B94B180004F0B9FCAE4BDB881A00B64B1100180004F035FCAC4B12221A70A84BDA88AA4B1100180001F059
:401AC000E3FB18E1AF4B180004F0A2FC3B685B681B680133180001F0C3FB03001A00A34B1A80A34BA84A1A60A04B1B881A00A74B1100180004F010FC994B10225A70FAE00B
:401B0000A34B180004F084FC934B1B891A00A14B1100180004F000FC914B15221A708E4B1A89904B1100180001F0AEFBE3E09A4B180004F06DFC3B685B681B680133180081
:401B400001F08EFB03001A00884B1A80884B934A1A60864B1B881A00914B1100180004F0DBFB7F4B13225A70C5E08E4B180004F04FFC794B5B891A008B4B1100180004F087
:401B8000CBFB774B18221A70734B5A89754B1100180001F079FBAEE0844B180004F038FC3B685B681B680133180001F059FB03001A006E4B1A806E4B7D4A1A606B4B1B8810
:401BC0001A007C4B1100180004F0A6FB644B16225A7090E0784B180004F01AFC604B19225A7088E0754B180004F012FC744B1A000721022001F00CFF03001A00714B1A80BC
:401C0000704B1B88002B05D06F4B180004F084FB00F07CFF6A4B9B781A000123134021D0674B9B7801229343DAB2654B9A70644B19000520FFF7F2F903001900604B1A0099
:401C4000022001F095FE03001A005E4B1A805D4B1B88002B09D05C4B180004F05DFB00F055FF02E03E4B04229A703D4B1A225A7041E0564B180004F0CBFB514B1A00072125
:401C8000022001F0C5FE03001A004E4B1A804D4B1B88002B05D04C4B180004F03DFB00F035FF474B9B7801221343DAB2444B9A70434B19000520FFF7B1F903001900404B6E
:401CC0001A00022001F054FE03001A003D4B1A803C4B1B88002B05D03B4B180004F01CFB00F014FF1E4B1B225A7004E0384B180004F08EFBC04601E0C04600E0C0463B686E
:401D00000D22BA1812781A721FE0324B180004F07FFB1AE0304B180004F07AFB15E02F4B180004F075FB10E02D4B180004F070FB0BE02C4B180004F06BFB06E07A682A4BB9
:401D40001100180004F0E8FAC046C046BD4605B090BDC04674AC0100BC0B00208CAC0100A8230020A9230020B4AC0100E4110020B40B0020C00B0020CCAC0100F4AC0100DB
:401D80000CAD010034AD0100C20B00204CAD010074AD010098AD0100CCAD0100C40B0020F0AD010024AE010048AE01007CAE0100C60B0020A0AE0100D4AE0100F4AE0100D6
:401DC000B82300208823002008A7010008AF01001CAF01002CAF010050AF010074AF010094AF0100B4AF0100D4AF010090B58BB000AF3C0020606160A260E3603B001A78FF
:401E00001423FB185A703B005A881423FB1802331100180001F038FA3B009A881423FB1804331100180001F02FFA2723FB1806221A703B001B781A002023134012D02723CC
:401E4000FB181A783B009B68DBB23F210B40D9B21423FB1899542723FB181A782723FB1801321A703B001B781A004023134013D02723FB181A783B009B681B0ADBB23F21BC
:401E80000B40D9B21423FB1899542723FB181A782723FB1801321A703B001B785BB2002B10DA2723FB181A783B009B681B0CD9B21423FB1899542723FB181A782723FB18BA
:401EC00001321A70654B1A6880231B02134018D03B001B781A000123134012D02723FB181B781422BA18D2183B009B891900100001F0CAF92723FB182722BA181278023263
:401F00001A70564B1A6880235B02134018D03B001B781A000223134012D02723FB181B781422BA18D2183B00DB891900100001F0ABF92723FB182722BA18127802321A7078
:401F4000464B1A6880235B01134022D02723FB181B780233DAB21423FB181A702723FB181B781422BA18D4181423FA182723FB181B7811001800FEF7E9FF03001900200026
:401F800001F082F92723FB181422BA1812781A7005E01423FB182722BA1812781A7005F093FB2F4B1B78DBB22722BA182721791809781170012BF2D01423FC182723FB1835
:401FC0001978284B1A785B781B02134300201B041B0C020C12041343180023000A00002101F066FD03001A001F4B1A801E4B1B88002B06D01D4B180004F08EF900F086FDCF
:4020000027E01B4B180004F087F92623FB1800221A7012E02623FB181B781422BA18D35C1A00144B1100180004F076F92623FB181A782623FB1801321A702623FA182723D6
:40204000FB1812781B789A42E4D30B4B180004F0DFF9C046BD460BB090BDC046D023002020240020242400208823002004B1010020B1010048A7010050A7010090B583B0BA
:4020800000AF0200FB1D1A70164B0122DA70164B1B78022B18D0042B0FD0012B1AD1FB1D1B78124C1B011859E2185168E2189268E318DB68FFF79AFE10E00D4B1B780133B9
:4020C000DAB20B4B1A7009E0FB1D1B78094A0121D15403E0034B0222DA70C046C046BD4603B090BDB8230020E1110020C80B0020B00B0020E811002090B583B000AFB64B7C
:402100001B781A000223134000D1A8E1B34B1B78062B00D903E19A00B14BD3181B689F46B04B1B78012B08DB022B02DD042B00D003E0AD4B0322DA7000E0C046FEE0AA4B0D
:40214000DB78012B00D0EEE00220FFF797FFEAE0A54BDB78012B00D0E7E00020FFF78EFFE3E0A14BDB78012B00D0E0E09E4B0622DA709E4B00221A70FB1D00221A700FE0C0
:40218000FB1D1B789A4AD35C002B04D1FB1D1B781800FFF773FFFB1D1A78FB1D01321A70FB1D1B78022BEBD9C1E08F4BDB78012B00D0BEE08C4B0622DA708E4B1B78012BD2
:4021C00027D18A4B00221A70FB1D00221A701BE0FB1D1B78884A1B01D31804331A88854B5B789BB29A420AD8FB1D1B78804AD35C002B04D1FB1D1B781800FFF73FFFFB1DE9
:402200001A78FB1D01321A70FB1D1B78022BDFD98FE0754B0922DA708BE0734BDB78012B00D088E0704B0622DA70724B1B78012B27D16E4B00221A70FB1D00221A701BE05E
:40224000FB1D1B786C4A1B01D31804331A88694B5B789BB29A420AD3FB1D1B78644AD35C002B04D1FB1D1B781800FFF707FFFB1D1A78FB1D01321A70FB1D1B78022BDFD93A
:4022800059E0594B0922DA7055E0574BDB78012B53D1554B0622DA70564B1B78012B3AD1544B5A78534B9B789A4203D94E4B0522DA7042E0FB1D00221A7027E0FB1D1B7859
:4022C0004D4A1B01D31804331A884A4B5B789BB29A4216D3FB1D1B78474A1B01D31804331A88444B9B789BB29A420AD8FB1D1B783F4AD35C002B04D1FB1D1B781800FFF708
:40230000BDFEFB1D1A78FB1D01321A70FB1D1B78022BD3D911E0344B0922DA700DE0324B0422DA700AE0C04608E0C04606E0C04604E0C04602E0C04600E0C0462A4B002207
:402340005A702E4B04221A70264B1B78042B0AD1254B05221A70254B1A78234B9A70224B0022DA7006E0204B06221A701D4B1A781D4B9A7005F0A8F9214B1B78DBB2012B2B
:40238000F8D01E4B1978184C1E4B1A785B781B02134300201B041B0C020C12041343180023000A00052101F009FC03001A00164B1A80154B1B88002B06D0144B180003F0EF
:4023C000ABFF00F0A3FB43E0114B180003F0A4FF104B00221A8030E0E0110020E21100206CB10100E1110020B8230020B00B0020E8110020DC230020C80B0020E6110020E5
:402400002024002024240020882300202CB1010054B101008C2300205C4B1B881A005C4B9B5C1A005B4B1100180003F075FF574B1B8801339AB2554B1A80574B1B789AB280
:40244000524B1B889A42E7D8544B180003F0E0FF534B1B7802229343DAB2514B1A70504B1B781A000123134000D18BE04D4B1B781B2B26D89A004C4BD3181B689F464B4B97
:4024800002221A701EE04A4B00221A80494B484A1A60474B1B88484A94466344042B03D8464B05229A7005E0424B1B68404A12881A80C046414B1C221A703C4B03221A7028
:4024C00000E0C04605F000F93D4B1B78DBB2012BF8D0364B1B78394A11001800FEF79EFD03001A00314B1A70304B1978334C354B1A785B781B02134300201B041B0C020CA2
:4025000012041343180023000A00062101F056FB03001A002C4B1A802B4B1B88002B06D02A4B180003F0F8FE00F0F0FA23E0284B180003F0F1FE154B00221A8010E0134B0F
:402540001B881A001D4B9B5C1A00124B1100180003F0E2FE0D4B1B8801339AB20B4B1A80124B1B789AB2094B1B889A42E7D80B4B180003F04DFF0A4B1B7801229343DAB279
:40258000074B1A70C046BD4603B090BD8C230020B823002048A70100E611002050A70100E0110020D823002088B10100E3110020E4110020B40B002002F8FFFFA82300201C
:4025C0002024002024240020882300202CB1010060B1010080B500AF034B180001F00CFDC046BD4680BDC046ED25000080B584B000AF786039607A68A4235B009A4200D079
:4026000029E10C23FB1800221A70984B180003F083FE974B00221A8012E03B685B681B68934A12889B181B781A00924B1100180003F072FE8E4B1B8801339AB28C4B1A800D
:402640003B685B689A888A4B1B889A42E5D88A4B180003F0DDFE3B685B681B681A78874B1A70864B1B78062B14D0092B23D0032B32D1834B180003F0CBFE0F23FB18002255
:402680001A700E23FB1810221A700D23FB1820221A7030E07B4B180003F0BAFE0F23FB1801221A700E23FB1804221A700D23FB1808221A701FE0744B180003F0A9FE0F2369
:4026C000FB1802221A700E23FB1801221A700D23FB1802221A700EE03B685B681B681B781A006A4B1100180003F016FE0C23FB1880221A70C0460C23FB181B78002B57D132
:402700000823FB181A000321012001F083FC0F23FB181B780822BA18D35C0E22BA1812781340DBB2002B3BD00F23FB181B780822BA18D35C0D22BA1812781340DBB2002B4E
:4027400036D03B685B689B88072B24D1484B01221A8018E03B685B681B68454A12889B181A784B4B1B68424909885B181B789A4203D00C23FB1808221A703D4B1B880133C5
:402780009AB23B4B1A803B685B689A88384B1B889A42DFD80CE00C23FB1808221A7007E00C23FB1880221A703A4B180003F030FE0C23FB181B78002B1FD1374B1B78374AF1
:4027C000110018000FF07EFC03001A00344B1A80344B180003F0A0FD00F098F9324B18000FF028FC03001A002D4B1A802F4B180003F092FD00F08AF902E0204B00221A70F2
:402800002B4B180003F088FD0C23FB181B78082B0DD0802B06D0002B0ED1264B180003F0F7FD12E0244B180003F0F2FD0DE0234B180003F0EDFD08E00C23FB181A78204BE0
:402840001100180003F068FDC0463B680C22BA1812781A7206E07A681A4B1100180003F05BFDC046C046BD4604B080BD00B201008C23002018B2010020B20100EC1100203A
:4028800024B2010050B2010074B20100A8B20100F80B0020CCB2010024240020E023002088230020E8B20100E82300200CB3010038B3010048B301004CB3010064B301003E
:4028C00080B3010098B3010080B500AF414B1B78002B00D17AE03F4B1B78062B13D0092B2FD0032B00D06EE03B4B18000FF0D6FC03001A00394B1A80394B180003F00CFD0D
:4029000000F004F95FE0374B00221A8011E00FF007FD03001A00314B1A80334B180003F0FBFC00F0F3F82F4B1B8801339AB22D4B1A802E4B1B789AB22A4B1B889A42E6D8F2
:4029400041E0284B00221A8035E0264B1B881A001300DB009B1A254A9B185A1C1E4B9A420DD1204B1B881900204A0B00DB005B1AD31807331A78184B9B799A4215D0194B27
:402980001B881A001300DB009B1A184A9B18013318000FF083FC03001A00104B1A80104B180003F0B9FC00F0B1F80E4B1B8801339AB20C4B1A800D4B1B789AB2094B1B8877
:4029C0009A42C2D8C046034B00221A70C046BD4680BDC046EC110020E023002088230020B4B301008C230020E4B30100E823002080B586B000AFF860B9607A6000237B61AC
:402A000009E0BB685A1CBA601B78180001F08CFD7B6901337B617A697B689A42F1DB7B681800BD4606B080BD90B585B002AF3B00180004F03BFE03001A00104B1A800F4B6B
:402A40001B88002B06D00E4B180003F065FC00F05DF80FE03B001B8819003B005B881A003B009B881C003B00DB8806480093230003F052FCC046BD4603B090BD8823002059
:402A80001CB4010048B4010080B500AF164B180003F042FC154B1B78042B1DD89A00144BD3181B689F46134B180003F0B1FC18E0114B180003F0ACFC13E0104B180003F0E1
:402AC000A7FC0EE00E4B180003F0A2FC09E00D4B180003F09DFC04E00B4B180003F098FCC046C046BD4680BD6CB401001C240020C8B4010074B4010080B4010090B4010098
:402B00009CB40100ACB40100BCB4010080B500AF354B1B881A00354B1100180003F0FCFB314B1B88132B4DD00ADC012B25D002DC002B1DD050E0022B24D0072B27D04BE0A2
:402B40000222FF3293422CD00222FF32934206DC282B3CD08022520093421DD03CE081225200934222D00422FF32934223D033E01F4B180003F04CFC33E01E4B180003F0C0
:402B800047FC2EE01C4B180003F042FC29E01B4B180003F03DFC24E0194B180003F038FC1FE0184B180003F033FC1AE0164B180003F02EFC15E0154B180003F0ADFBFFF790
:402BC00063FF0EE0124B180003F022FC09E0114B180003F01DFC04E00F4B180003F018FCC046C046BD4680BD88230020DCB40100E8B40100ECB4010000B5010014B50100D3
:402C000028B5010044B501005CB5010080B5010090B50100ACB50100C8B5010080B582B000AF786039603A687B680021180003F06BFBC046BD4602B080BDC04680B500AFCE
:402C4000054B03221A60054B03221A60044B00221A60C046BD4680BD3000304030003140000E3F4080B500AF03F00AFB03001B680C2B00D1FEE7FEE780B584B000AF786053
:402C8000104B1A687B68D3181A000F4BD21A80239B009A4209DC0B4B1B68FB60094B1A687B68D218074B1A6007E003F0E9FA03000C221A6001235B42FB60FB681800BD4665
:402CC00004B080BDFC0B00203024002080B586B000AF224B7B61224B3B61204B7B6135E03B691B68FB603B695B68BB603B699B683B6000237B600CE0FB681A68BB681A60CE
:402D0000BB680433BB60FB680433FB607B6804337B607A683B689A42EED13B69DB683B6000237B6008E0BB6800221A60BB680433BB607B6804337B607A683B689A42F2D15F
:402D40003B6910333B617B69013B7B617B69002BC6D103F09BFAFDF7D9FFFEE70100000090BB010080B582B000AF154B144A126801218A431A6000237B600FE07B68032BF3
:402D800004D8104B7A689200D35800E00E4B0F4A796889008B507B6801337B607B682F2BECD9FDF7C3F90A4B00221A60044B044A126801210A431A60C046BD4602B080BDD9
:402DC0000000104000000000652C000000000020C000002080B582B000AF094B1B68DAB2FB1D7F218A431A70054BFA1D12781A60FB1D1B78DB09DBB21800BD4602B080BDD9
:402E00001002044080B500AF094B00221A70094B00221A70084B00221A7000F013F8074B00221A70064B00221A70C046BD4680BD2724002020240020262400200824002098
:402E40001024002080B500AF01F0D0F800F072FD00F06AFDC046BD4680BDC046B0B594B004AF78603E23FB1800221A802823FA183D4B1000190014231A0003F03CFA3B4BED
:402E80001B78002B04D1FFF7BDFF384B01221A707B68002B5CD0364B7A681A603E23FB181B88002B29D11023FB181C22BA185A601023FB182022BA181A601023FB180022FE
:402EC0001A812023FB181B221A802023FB181B225A802023FB1804221A711C23FB1808221A703E23FC180E23FA181023FB181100180004F0C5FC030023803E23FB181B88F7
:402F0000002B29D13E23FC182823FD18AE231A0118491948194B0293194B0193052300932B0004F003FC030023803E23FB181B88002B11D1134B01221A703E23FC18124B78
:402F40000F223521180011F077FF0300238003E03E23FB1801221A803E23FB181B881800BD4610B0B0BDC046E8B50100ED1100200C240020C8000020053500007902000073
:402F800000C401001C24002004B6010090B591B000AF0200FB1D1A703E23FB1800221A805B4B1B781A00012313401ED03E23FC18FB1D1B7818000CF03FFB030023803E23FB
:402FC000FB181B88002B10D1514B1B7801229343DAB24F4B1A704E4B1B781A000223134003D03E23FB1828221A803E23FB181B88002B03D0FB1D1B78002B26D0444B1B784B
:403000001A000223134020D0424B1B78042B1CD8404B1B784F33DA003F4BD318591C3E23FC18FB1D1B783D4808220CF0EBFA030023803E23FB181B88002B06D1344B1B78E6
:4030400002229343DAB2324B1A703E23FB181B88002B03D0FB1D1B78002B51D02C4B1B781A000C2313404BD0294B1B781A00082313401FD00C23FB1828220021180003F0B0
:4030800043F93E23FC18FB1D1B7825490C22B81828220CF0B7FA030023803E23FB181B88002B2DD11A4B1B7808229343DAB2184B1A7025E03423FB18180008231A0000210D
:4030C00003F022F9174B1B784F33DA00124BD318591C3E23FC18FB1D1B783422B81808220CF090FA030023803E23FB181B88002B06D1074B1B7804229343DAB2044B1A70B9
:403100003E23FB181B881800BD4611B090BDC046082400202424002000C401001424002079C60100EE11002090B585B000AF0200FB1D1A70FB1D1B78022B04D90E23FB1853
:4031400001221A804AE0294B1B78042B41D1284B1B78DBB21A00042313403AD1FB1D1B78002B0BD1234B1E221A82224B5B6820221A80204B5B6830225A8010E0FB1D1B78F1
:40318000012B0CD11B4B96221A821A4B5B68C822D2001A80174B5B68FA2212015A80164BFA1D12781A700E23FC18124B18000FF041FA030023800E23FB181B88002B0DD18A
:4031C0000B4B1B78DBB204221343DAB2084B1A7004E00E23FB180422FF321A800E23FB181B881800BD4605B090BDC0461C24002027240020500C00202624002080B584B037
:4032000000AF78600A00FB1C1A700023BB60BB68002B20D07B689A79BB681A700F23FB1800221A7012E00F23FB181B780133BA68D3180F22BA18127879688A5C1A700F2331
:40324000FB181A780F23FB1801321A700F23FB181B78052BE7D9C046BD4604B080BDC04680B582B000AF78607B681B789AB27B6801331B789BB21B029BB213439BB2180013
:40328000BD4602B080BDC04680B582B000AF78600A00BB1C1A80BB1C1B88DAB27B681A707B680133BA1C1288120A92B2D2B21A70C046BD4602B080BD90B585B000AF78604C
:4032C0000F23FB1800221A707B689B890D22934232D17B68181D7A680F23FC184023002111F0F3FD030023700F23FB181B78002B1AD17B685B681800FFF7B2FF03001A0014
:40330000022313409BB2002B07D00F4B1B687968822252001000984706E00B4B1B6879680622FF3210009847084B1B78DBB201229343DAB2054B1A700F23FB181B78180079
:40334000BD4605B090BDC0460C2400202724002090B585B000AF78600F23FC187B681800FFF7AAFF03002370294B1B78DBB21A00012313400CD00F23FB181B78002B07D134
:403380000F23FC187B68180000F094FE030023701F4B1B78DBB21A00012313400CD00F23FB181B78002B07D10F23FC187B68180000F0FCFC03002370154B1B78DBB21A0089
:4033C000012313401FD10F23FB181B78002B16D00823FB1812229A707B689A890823FB181A800823FB180F22BA181278DA700823FA187B681100186810F07CFA03E07B6821
:40340000186810F013FBC046BD4605B090BDC0462724002080B582B000AF78607B68002B0AD0074B1B78DBB21A000123134003D07B68180000F054FCC046BD4602B080BDA3
:403440002724002080B500AF044B00225A70034B00221A70C046BD4680BDC0462424002080B582B000AF7860C046BD4602B080BD80B500AF00F05EFAC046BD4680BDC046B6
:4034800080B584B000AF78600E23FB1800221A707B689B79002B1CD10F23FB1800221A7012E00F23FB181B787A68D35C002B04D00E23FB1801221A700BE00F23FB181A789F
:4034C0000F23FB1801321A700F23FB181B78052BE7D90E23FB181B781800BD4604B080BD80B582B000AF0200BB1D1A80C046BD4602B080BD80B582B000AF7860C046BD46A6
:4035000002B080BD80B588B000AF02003960FB1D1A70CB4B1B78DBB201221343DAB2C84B1A70FB1D1B78412B00D160E123DC212B00D1C6E00DDC022B00D198E002DC012B17
:403540003BD0D1E1052B00D196E0062B00D198E0CAE1272B00D1EEE006DC242B00D1E0E0262B00D1F3E0BFE1282B00D1EBE02A2B00D1DBE0B8E14F2B00D195E10BDC432B2B
:4035800000D153E100DA4EE14C2B00D187E14E2B00D1A0E1A8E1572B00D19EE106DC502B00D186E1542B00D188E19DE1712B00D117E1FA2B00D186E196E11423FB180722AF
:4035C0001A701423FB1800225A701423FB18180006F06CF91423FB1807221A701423FB1801225A701423FB18180006F05FF90023002B01D004F04AF8924B1B681800FFF7A7
:403600003FFF031E11D08F4B1B68180004F060F88C4B1B6800211800FFF7F0FD894B1B6801211800FFF7EAFD0DE0874B180004F04FF8854B00211800FFF7E0FD824B0121C8
:403640001800FFF7DBFD00200EF098FE1023FB183F221A701023FB1800225A701023FB1818000EF0A9FE794B04221A703CE13B681800FFF7F5FE37E13B681A78744B1A707F
:4036800032E13B68BB61BB691B78002B00D026E1BB695B78002B0BD16E4B0022DA806D4B00229A806B4B6C4A1A60BB69694A5A60634B1B78DBB201229343DAB2604B1A7059
:4036C0000DE15F4B1B78DBB21A002023134000D007E1624B1B78102B02D1604B0522DA705F4B1B785D4A110018000EF065FF03001A000E23FB181A800E23FB181B88002BC4
:4037000006D0584B1B680E22BA181100362098474B4B1B78DBB201221343DAB2484B1A70DFE03B685A78504B1A70DDE03B681800FFF7E0FED8E03B681800FFF7DBFE434BF8
:4037400002221A70D0E0414B04221A70CCE03F4B1B78022B00D1C6E0394B1B78DBB21A000123134000D1BEE0354B1B78DBB21A00042313400BD0354B03221A70304B1B7852
:40378000DBB204229343DAB22D4B1A70ABE02C4B1B78DBB21A00082313400BD02B4B04221A70274B1B78DBB208229343DAB2244B1A7098E0254B1B78032B00D093E0234BC6
:4037C00004221A70294B1B78002B00D08BE00120FFF7AAFC031E00D085E01C4B03221A7081E03B681B881800FFF77AFE7CE01C4A3B681000190002231A0002F07CFD144BBF
:4038000000221A70164B1B784F33DA00184BD3180133184A1000190008231A0002F06BFDFFF726FE60E0FFF70DFE5DE03B685B88162B21D81E23FB183A6852881A801FE01F
:40384000272400206C0C0020640C00201C24002020240020F0110020A80B0020E00D0020242400200C240020102400202624002000C40100142400201E23FB1817221A8036
:403880001E23FB1819883B681A8800231204120C1B0C1B041343180010F036F824E03B681800FFF755FD1FE03B68180000F074FC1AE03B68180000F0CFFC15E03B68180054
:4038C000FFF7A8FD10E0154B1B7801221343DAB2124B1A7008E0C04606E0C04604E0C04602E0C04600E0C0460D4B1B78DBB21A00112313400ED00A4B1B78DBB20122934367
:40390000DAB2074B1A70074B1B68FA1D1278396810009847C046BD4608B080BD08240020272400200C24002080B500AFC046BD4680BDC04680B500AF044B00221A70044BB6
:4039400000221A80C046BD4680BDC04628240020FC11002080B582B000AF7860034B7A681A60C046BD4602B080BDC046F811002080B586B000AF3A60FB1D021C1A70BB1D9B
:403980000A1C1A70FB1D1B78062B04D91623FB1801221A8033E0FB1D1B781C4A9B00D31802331B88002B04D11623FB1813221A8025E0FB1D1B78154A9B00D31802331A888C
:4039C0000823FB181A81BB1D1B789AB20823FB189A800823FB183A681A600823F81800230022002111F071FA031E04D01623FB1801221A8003E01623FB1800221A80162356
:403A0000FB181B881800BD4606B080BD28BA010080B586B000AF3A60FB1D021C1A70BB1D0A1C1A70FB1D1B78062B04D91623FB1801221A8033E0FB1D1B781C4A9B00D31877
:403A400002331B88002B04D11623FB1813221A8025E0FB1D1B78154A9B00D31802331A880823FB181A81BB1D1B789AB20823FB189A800823FB183A681A600823FB18002245
:403A80000021180011F0F0F9031E04D01623FB1801221A8003E01623FB1800221A801623FB181B881800BD4606B080BD28BA010090B589B000AF0C243C19208008001100AF
:403AC0007B600B23FB18021C1A700A23FB180A1C1A70374B1B78022B05D01E23FB180422FF321A805CE00B23FB181B78062B04D91E23FB1801221A8052E00B23FB181B7881
:403B00002C4A9B00D31802331B88002B04D11E23FB1813221A8043E00B23FB181B78254A9B00D31804331B885A1E234913009B009B189B00CB1810331B685B681800FFF76E
:403B40008FFB03001A00012313409BB2002B05D11E23FB18802252001A8021E00B23FB181B78144A9B00D31802331A881023FB181A811023FB187A681A600A23FB181B7811
:403B80009AB21023FB189A801E23FC181023FA180C23FB18110018680FF0F4FE030023801E23FB181B881800BD4609B090BDC0461C24002028BA010004B6010090B589B0BB
:403BC00000AF0C243C192080080011007B600B23FB18021C1A700A23FB180A1C1A703C4B1B78022B05D01E23FB180422FF321A8066E00B23FB181B78062B04D91E23FB1847
:403C000001221A805CE00B23FB181B78314A9B00D31804331B88002B04D11E23FB1813221A804DE00B23FB181B782A4A9B00D31804331B885A1E284913009B009B189B00FF
:403C4000CB1810331B685B681800FFF709FB03001A00022313409BB2002B05D11E23FB180222FF321A802BE00B23FB181B78194A9B00D31802331A881023FB181A811023ED
:403C8000FB187A681A600A23FB181B789AB21023FB189A801E23FC181023FA180C23FB18110018680FF064FE030023801E23FB181B88002B04D11023FB181A89074B1A80D6
:403CC0001E23FB181B881800BD4609B090BDC0461C24002028BA010004B60100FC11002080B586B000AF78602B4B1B68002B4ED01B222A4B1B889A4249D10C23FB18052293
:403D00009A703FE00C23FB189B78254A9B00D31802331A88214B1B889A422BD11F4B00221A800C23FA187B681000190002231A0002F0E1FA0C23FB1800225A600C23FB1873
:403D40009B78052B06D1174B1B7801229343DAB2144B1A70144B1B78DBB201229343DAB2114B1A700C4B1B680C22B918A7225200100098470C23FB189B780133DAB20C23B5
:403D8000FB189A700C23FB189B78062BBAD9C046BD4606B080BDC046F8110020FC11002028BA0100282400202724002080B586B000AF78600823FB1800221A72844B1B688B
:403DC000002B00D1FDE00823FB187A6812881A800823FB1800229A70EDE07B689A890823FB189B787B499B00CB1802331B889A426ED17B681A1D0823FB185A600823FB1883
:403E00009B78052B39D1744B1B7801221340DBB2002B11D07B685B681B78032B07D16E4B1B7801229343DAB26B4B1A7025E00823FB18FE221A7220E01C235A1E674913001B
:403E40009B009B189B00CB1810331B685B681800FFF706FA03001A00022313409BB2002B04D10823FB18FD221A7206E05A4B1B7801221343DAB2584B1A700823FB181B7AF1
:403E8000002B07D1524B1B680822B9185222FF32100098470823FB181B7A002B0BD17B68181D7A684023002111F00FF803001A000823FB181A724A4B1B78DBB2012293435B
:403EC000DAB2474B1A700823FB1807229A706AE07B689A890823FB189B783E499B00CB1804331B889A425ED10823FB1800225A607B68181D7A684023002110F0E6FF03009E
:403F00001A000823FB181A720823FB181B7A002B3DD10823FB189B78002B13D17B685B681800FFF79DF903001A00012313409BB2002B03D05023FF337B6116E0A8235B006B
:403F40007B6112E07B685B681800FFF789F903001A00022313409BB2002B03D0A6235B007B6102E04E23FF337B61194B1B680822B9187A69100098471A4B1B78012B06D14D
:403F8000194B1B7802221343DAB2174B1A70144B1B78DBB201229343DAB2114B1A700823FB1807229A700823FB189B780133DAB20823FB189A700823FB189B78062B00D80A
:403FC0000BE70823FB181B7A1800BD4606B080BDF811002028BA01002824002004B6010027240020102400200824002080B500AFC046BD4680BDC04680B582B000AF786092
:40400000034B7A681A60C046BD4602B080BDC0460012002080B586B000AF3A60FB1D021C1A70BB1D0A1C1A70FB1D1B78012B04D91623FB1801221A8033E0FB1D1B781C4AC9
:404040009B00D31802331B88002B04D11623FB1813221A8025E0FB1D1B78154A9B00D31802331A880823FB181A81BB1D1B789AB20823FB189A800823FB183A681A600823EE
:40408000FB1800220021180010F0EEFE031E04D01623FB1801221A8003E01623FB1800221A801623FB181B881800BD4606B080BD48BA010080B586B000AF78600C23FB1889
:4040C00000221A72314B1B68002B58D07B689B892222934253D17B689B8979684222180010F040F803001A000C23FB181A720C23FB181B7A002B3AD10C23FB187A6812882A
:404100001A800C23FB1800229A707B681A1D0C23FB185A601D4B1B680C22B918A4225200100098470C23FB181B7A002B1FD17B68181D7A684023002110F0C7FE03001A001E
:404140000C23FB181A720C23FB181B7A002B0ED122235A1E0E4913009B009B189B00CB1810331A680C23FB185B689B881380094B1B78DBB201229343DAB2064B1A700C231A
:40418000FB181B7A1800BD4606B080BD0012002004B601002724002080B584B000AF78607B685A687B681B7A28498C4663441B01D3181B892222934244D10E23FB181722A4
:4041C0001A800E23FB1818000EF0C2FF0023002B14D000235A1E1E4913009B009B189B00CB1810331B685B681800FFF739F803001A00012313409BB2002B10D122235A1E85
:40420000134913009B009B189B00CB180C331B881A000E23FB181B88033B9A4207D97B681B7A012B06D101200FF0BEFB02E07B680B225A72074B1B78DBB201229343DAB25D
:40424000044B1A70C046BD4604B080BDFFFFFF0F04B601002724002080B588B000AF78601423FB1800229A801423FB1800221A601F23FB1800221A704CE07B685A681F23C5
:40428000FB181B781B01D3181B89222293423AD17B685A681F23FB181B781B01D3189A897B6859681F23FB181B781B01CB189B88D3189AB21423FB189A801423FB181B68BC
:4042C000002B0BD17B685A681F23FB181B781B01D3181A681423FB181A6014E07B685A681F23FB181B781B01D3189B89002B0AD17B685A681F23FB181B781B01D3181A6815
:404300001423FB181A601F23FB181A781F23FB1801321A707B681B7A1F22BA1812789A42ABD31423FB189B88002B48D01423FB18998822235A1E244813009B009B189B0011
:40434000C3180C331B88994239D87B685B7A012B2DD10823FB1800221A720823FB187A6812881A800823FB181422BA185A60174B1B680822B918A422520010009847082360
:40438000FB181B7A002B0DD122235A1E0E4913009B009B189B00CB1810331B681422BA1892881A800823FB181A7A7B681A73084B1B78DBB201229343DAB2054B1A70C046BD
:4043C000BD4608B080BDC04604B60100001200202724002080B584B000AF0200FB1D1A700F4B1B68DAB20F23FB1840218A431A70FB1D1B789B01DBB240221340D9B20F23FF
:40440000FB180F22BA1812780A431A70044B0F22BA1812781A60C046BD4604B080BDC0460002044080B584B000AF0200FB1D1A700F4B1B68DAB20F23FB1840218A431A7047
:40444000FB1D1B789B01DBB240221340D9B20F23FB180F22BA1812780A431A70044B0F22BA1812781A60C046BD4604B080BDC0460003044080B500AF00F07CF8C046BD4691
:4044800080BDC04680B500AF064B064A1268802109060A431A6000F019F800F01DF8C046BD4680BD0000244080B500AF064B1B78002B04D1FFF7DEFF034B01221A70FFF707
:4044C000E1FFC046BD4680BD0412002080B500AFC046BD4680BDC04680B500AF00F0ACF8C046BD4680BDC04680B582B000AF00237B60044B1B687B607B681800BD4602B0FB
:4045000080BDC0464003244080B582B000AF054B1B681F2213407B607B681800BD4602B080BDC0460803244080B582B000AF7860C046064B1B681F221340082BF9D0044B30
:404540007A681A60C046BD4602B080BD080224404002244080B582B000AF054B1B681F2213407B607B681800BD4602B080BDC0460802244080B500AF1B4B1C4A1A601C4B89
:4045800000221A601B4B1C4A1A601C4B1C4A1A601C4B07221A601C4B00221A601B4B01221A601B4B164A1A601A4B00221A601A4B04221A60194B00221A60194B00221A607C
:4045C000184B00221A60184B00221A60174B00221A60174B00221A60154B1B689AB2154B1A80C046BD4680BD000024400F000002400024404800244001000A00000324401B
:4046000007000080040324401003244044002440000224400402244050002440880E2440C80E2440480F2440080F2440C80F2440880F24400612002080B500AF074B074A86
:40464000126807490A40902109040A431A60054B054A12881A60C046BD4680BD00010240FFFF0FFF880F24400612002080B582B000AF00237B60FFF747FF031E03D0FFF7EC
:4046800033FF03007B60084B1A68D8239B00134005D000237B60044BD82292001A607B681800BD4602B080BDC00F244080B500AF00F054F8054B180000F010F8032000F051
:4046C0001BF800F041F8C046BD4680BDD146000080B500AFC046BD4680BDC04680B582B000AF7860034B7A689A64C046BD4602B080BDC0460000002090B585B000AF02008C
:40470000FB1D1A701623FB600B23FC1800F0D5FC030023700A4B0A4A12680A491140FA1D1078FA68904002000A431A600B23FB181B78180000F0C5FCC046BD4605B090BDA1
:4047400000E400E0FFFF3FFF80B500AF024B04221A60C046BD4680BD00E100E080B500AF024B04221A60C046BD4680BD80E100E080B500AF024B04221A60C046BD4680BDF2
:4047800080E200E080B584B000AF0200FB1D1A700D4B1B68DAB20F23FB187F210A401A70FB1D1B78DB01D9B20F23FB180F22BA1812780A431A70044B0F22BA1812781A60CA
:4047C000C046BD4604B080BD0003044090B585B000AF78600F23FC1800F06FFC030023700A4B7A68D104E02292031140074A1268074802400A431A600F23FB181B78180039
:4048000000F05FFCC046BD4605B090BD00010B40FFFFC7FF90B585B000AF78600C23FC1800F04BFC030023707B68022B00D8AFE07B68302B00D9ABE05C4B1B78DBB21A0007
:404840007B689A420AD35A4A0F23FB1812781A70584A0E23FB1812781A703FE0564B1B78DBB21A007B689A420AD3544A0F23FB1812781A70524A0E23FB1812781A702DE017
:40488000504B1B78DBB21A007B689A420AD34E4A0F23FB1812781A704C4A0E23FB1812781A701BE04A4B1B78DBB21A007B689A420AD3484A0F23FB1812781A70464A0E2396
:4048C000FB1812781A7009E0444A0F23FB1812781A70434A0E23FB1812781A707B68DA1E0B23FB183F498A5C1A700B23FB181B782F2B0DD97B682A2B0AD93B4B19221A605E
:40490000052000F0D1FB0D23FB1819221A7007E0354B1B68DAB20D23FB183F210A401A700B23FA180D23FB1812781B789A4208D22D4B7A68033A2B498A5C1A60052000F0CB
:40494000B3FB2A4B7A6826498C4662441278D2B21A60274B0F22BA1812781A60254B0E22BA1812781A60052000F0FEF80B23FA180D23FB1812781B789A420CD91A4B7A6821
:40498000033A18498A5C1A60052000F08DFB02E0002000F0B7F80C23FB181B78180000F090FBC046BD4605B090BDC04640F3FF0F41F3FF0F42F3FF0F43F3FF0F44F3FF0FF3
:4049C00045F3FF0F46F3FF0F47F3FF0F48F3FF0F49F3FF0F4AF3FF0F4BF3FF0F4CF3FF0F4DF3FF0F54BA01002CFF0B4028FF0B401CFF0B4020FF0B4080B584B000AF786066
:404A00000023FB60154B154A126801210A431A60134B144A1A60144B134A1268802109020A431A607B68002B12D01023FB600CE0012000F099F800F019F8031E02D00023D4
:404A4000FB6005E07B68013B7B607B68002BEFD1FB681800BD4604B080BDC04660F02E4078002E400220000010002E4080B582B000AF054B1B68012213407B607B68180040
:404A8000BD4602B080BDC0460C002E4080B584B000AF02003960FB1D1A7080239B05FB60FB1D1B781F2B02D9002000F02BF8FB1D1B7810339B00FA68D3181B68BB60FB1D02
:404AC0001B7810339B00FA68D3183A681A60BB681800BD4604B080BD80B582B000AF0200FB1D1A70064BFA1D12781F210A40012191400A001A60C046BD4602B080BDC04602
:404B000000E100E080B582B000AF0200FB1D1A7001BEC046BD4602B080BDC04680B582B000AF786009E00D4B1B68180000F0BCFA7B680B4A944663447B607A6880231B0297
:404B40009A42F0D8074B1B687A685343180000F0ABFAC046BD4602B080BDC046F40D00200080FFFFEC0D002080B582B000AF0200BB1D1A80BB1D1B88044A12785343180056
:404B800000F092FAC046BD4602B080BDF00D002080B500AF164B164A1268920092081A60144B144A1268920092081A60124B124A1268920092081A60104B104A1268920028
:404BC00092081A600E4B0E4A1268920092081A600C4B0C4A1268920092081A600A4B0A4A1268920092081A60C046BD4680BDC04608000440080104400802044008030440B8
:404C000008040440080504400806044090B583B000AFFC1D00F051FA03002370074B074A126804218A431A6030BFFB1D1B78180000F047FAC046BD4603B090BD10ED00E01E
:404C400090B583B000AFFC1D00F037FA03002370114B114A1268520052081A600F4B104A128892B21A600F4B0E4A126804210A431A600D4B1B683B600220FFF7A7FD30BFA1
:404C8000094B3A681A60FB1D1B78180000F019FAC046BD4603B090BD00000B400C000B4052F2FF0F10ED00E000010B4090B583B000AFFC1D00F001FA03002370FFF768FF7A
:404CC000114B114A1268802109060A431A600F4B0F4A128892B21A600E4B0E4A126804210A431A600C4B0C4A1268FF218A43F1210A431A6030BFFB1D1B78180000F0E1F981
:404D0000C046BD4603B090BD00000B400C000B4050F2FF0F10ED00E02C000B4080B500AF0F4B0F4A126801218A431A600C4B0C4A126802218A431A600A4B0A4A12683021A5
:404D40008A4310210A431A60064B064A126807218A4301210A431A60C046BD4680BDC04600F02E4000FF2E4080B500AF0F4B0F4A126802218A431A600D4B0D4A1268072192
:404D80008A4302210A431A60094B094A126830218A4320210A431A60044B044A126801210A431A60C046BD4680BDC04600F02E4000FF2E4080B500AFFFF7B0FF044B044AB8
:404DC0001268802109060A431A60C046BD4680BD00F02E4080B584B000AF78600C4B1B6801221340FB607B68002B02D0012B03D005E0FFF793FF06E0FFF7B6FF03E00020A3
:404E0000FFF780FEC046FB681800BD4604B080BD00F02E4090B583B000AFFC1D00F04DF903002370074B074A1268C02109020A431A60FB1D1B78180000F043F9C046BD4657
:404E400003B090BD00010B4080B500AF054B1A68C0231B02134001D0012300E000231800BD4680BD00010B4090B583B000AFFC1D00F023F9030023700D4B0D4A12680D49E0
:404E80000A408021C9010A431A60094B084A126808490A40802109020A431A60FB1D1B78180000F00EF9C046BD4603B090BDC04600010B40FF3FFFFF90B585B000AF7860F6
:404EC0000B23FC1800F0F9F803002370FFF7BCFF031E04D00123FB60FFF7C6FF01E00023FB607B680D4A13407B600D4B0C4A12680C4911407A680A431A60094B1B68FB68A1
:404F0000012B01D1FFF786FF0B23FB181B78180000F0D7F8C046BD4605B090BD0404040010020B40FBFBFBFF80B584B000AF786039600023FB607B68022B0AD8094B7A68BA
:404F40009200D358FB60074B7A6892003968D15002E00020FFF7D6FDFB681800BD4604B080BDC0461412002080B582B000AF78607B68022B13D80D4B7A689200D358DA430E
:404F80000B4B1B681A400A4B1A60084B7A689200D258084B1B681A43064B1A6002E00020FFF7B0FDC046BD4602B080BD84BA010010120020000E002080B500AF344B1B68CE
:404FC000042213401FD0334B1B680422134017D0314B1B6804221340DA432E4B1B681A402C4B1A602C4B1B68042293431A002A4B1A602A4B1B68002B02D0284B1B68984743
:405000000420FFF759FF224B1A688023DB00134022D0204B1A688023DB00134017D01E4B1A688023DB001340DA431A4B1B681A40184B1A60184B1B68194A1A40164B1A6031
:40504000164B5B68002B02D0144B5B6898478023DB001800FFF730FF0D4B1A688023DB02134011D00B4B1A688023DB02134006D00A4B9B68002B02D0084B9B689847802317
:40508000DB021800FFF718FFC046BD4680BDC04610020B40000E00201012002014120020FFFBFFFF000000000230800803D00138FDD1C046C046C0467047EFF3108072B6A0
:4050C000704780F31088704780B5CCB000AFF860B960844B982149008C46BC4463441A80002392225200BA181360002390225200BA181360BB688A225200BA181360794B7E
:40510000982252009446BC4463441A888A235B00FB181B68D318744A934200D9C2E08A235B00FB181B681B0A96225200BA18136096235B00FB181B681B028E225200BA18FC
:4051400013609AE000238C225200BA181360002394225200BA1813606BE08E235B00FB181A688A235B00FB181B689A423DD35D4B982252009446BC4463441A8892235B000D
:40518000FB181B689A4230D9FA6892235B00FB181B68D3181978554B98225200BA18D21894235B00FB181B68D3180A1C1A708E235B00FB181B681B78DAB2F96892235B0013
:4051C000FB181B68CB181B789A4204D001238C225200BA18136092235B00FB181B68013392225200BA18136011E08E235B00FB181B681B78D9B23D4B98225200BA18D21864
:4052000094235B00FB181B68D3180A1C1A708E235B00FB181B6801338E225200BA18136094235B00FB181B68013394225200BA18136094235B00FB181B68FF2B8DD98C23FE
:405240005B00FB181B68002B0ED01423FA1896235B00FB181B681100180000F057FA030090225200BA18136096235B00FB181B68013396225200BA1813601A4B98225200ED
:405280009446BC4463441A8892235B00FB181B689A420CD990235B00FB181B68002B00D150E704E0012390225200BA18136090235B00FB181B68002B0BD090235B00FB1871
:4052C0001B68012B05D001235B4290225200BA18136090235B00FB181B681800BD464CB080BDC046D6FEFFFFFFFF0300E4FEFFFF80B582B000AF78600A00BB1C1A80BB1C2F
:405300001A887B681A60C046BD4602B080BDC04680B582B000AF78600A00BB1C1A80BB1C1A887B681A60C046BD4602B080BDC04680B584B000AF494B1B78DBB21B02484AB8
:405340001278D2B21343FB60464B1B78DBB21B02454A1278D2B21343BB60BB68434A934207D1FB68072B04D1414BBB600423FB6009E0BA68D4231B019A4204D1FB68042B41
:4053800001D13B4BBB603B4BBA681A603A4BFA681A603A4B1B78DBB21B02394A1278D2B21343FB60FA6880239B019A4202D0FB68002B01D1334BFB60334BFA681A60334B93
:4053C0001B78DBB21B02324A1278D2B21343FB60FB68304A934206D0FB682F4A934202D0FB68052B01D12D4BFB602D4BFA681A602C4B1B681B097B602B4B1B68AA2B29D1DD
:405400007B68012B26D9214B1B78DBB20E2B21D1264B1B78DBB29BB21B0299B2244B1B78DBB29AB2BB1C0A431A80224BBA1C12881A60214B1B78DBB29BB21B0299B21F4BC6
:405440001B78DBB29AB23B000A431A801C4B3A0012881A60C046BD4604B080BD59F1FF0F58F1FF0F5FF1FF0F5EF1FF0F580B0000580D00006C002E4074002E405BF1FF0FA7
:405480005AF1FF0F0220000078002E405DF1FF0F5CF1FF0F0F0F000005050000050F000080002E40EC0F00F0E00F00F06DF2FF0F6CF2FF0F84002E406FF2FF0F6EF2FF0F38
:4054C00094002E4080B582B000AF0200BB1D1A80BB1D1B881800FFF747FBC046BD4602B080BDC04680B582B000AF78607B681800FFF714FBC046BD4602B080BD80B500AF8D
:4055000000F0ECF8C046BD4680BDC04680B500AF00F0F0F8C046BD4680BDC04680B500AF00F0E8F8044B180000F0A2F8032000F0ADF8C046BD4680BD3159000080B500AF32
:40554000034B180000F080F8C046BD4680BDC0463159000080B500AF014B1800BD4680BD0202000080B582B000AF78602B231800BD4602B080BDC04680B582B000AF7860C1
:405580002B231800BD4602B080BDC04680B582B000AF78602B231800BD4602B080BDC04680B582B000AF78602B231800BD4602B080BDC04680B582B000AF78602B231800A1
:4055C000BD4602B080BDC04680B582B000AF78602B231800BD4602B080BDC04680B582B000AF78602B231800BD4602B080BDC04680B582B000AF78602B231800BD4602B012
:4056000080BDC04680B500AF2B231800BD4680BD80B582B000AF0200FB1D1A702B231800BD4602B080BDC04680B582B000AF786039602B231800BD4602B080BD80B500AFC2
:40564000C046BD4680BDC04680B582B000AF786000F050F87B68180000F00AF8032000F015F800F03BF8C046BD4602B080BDC04680B582B000AF7860034B7A681A67C046E5
:40568000BD4602B080BDC0460000002090B585B000AF0200FB1D1A700623FB600B23FC18FFF70BFD030023700B4B0B4A1268C0218A431100FA1D1078FA68904002000A43A7
:4056C0001A600B23FB181B781800FFF7FAFCC046BD4605B090BDC0460CE400E080B500AF034B802252011A60C046BD4680BDC04600E100E080B500AF034B802252011A6028
:40570000C046BD4680BDC04680E100E090B5C9B000AF7860396000238C225200BA18136000238A225200BA1813607B686C4A934200D9C7E03B68002B00D1C3E080235A0003
:4057400039680C23FB180833180000F0D4FD7B68644A934201D9644A00E0644A644B902149008C46BC4463441A60614B902252009446BC446344FF225A605E4B0C22BA1865
:405780001A605D4B5D4A1A60C0465A4B1B681B0F1A07F0231B069A4204D1564B1B68FF2213400DE0534B1B681B0F1A07A0231B069A4204D04F4B1B68FF22134000E000232F
:4057C0008C225200BA1813608C235B00FB181B68002B00D07BE02023FF33FC18FFF76DFC0300237000F090F803008A225200BA1813608C235B00FB181B68002B3FD13C4BD0
:40580000902252009446BC4463443D4A1A60384B902252009446BC4463441A687B681B041A43334B902149008C46BC4463441A60304B0C22BA181A602F4B324A1A60C04623
:405840002C4B1B681B0F1A07F0231B069A4204D1284B1B68FF2213400DE0264B1B681B0F1A07A0231B069A4204D0224B1B68FF22134000E000238C225200BA1813608A237B
:405880005B00FB181B68002B14D100F047F803008A225200BA1813608A235B00FB181B68002B07D08A235B00FB181B688C225200BA1813602023FF33FB181B781800FFF7C6
:4058C00000FC04E004238C225200BA1813608C235B00FB181B681800BD4649B090BDC046FF030000FF010000B6D70001B6D70000ECFEFFFF08001040040010400400008020
:40590000B6D800000500008080B582B000AF00237B607B681800BD4602B080BD80B582B000AF00237B607B681800BD4602B080BD80B500AF13F00AFFC046BD4680BDC04616
:40594000002243088B4274D303098B425FD3030A8B4244D3030B8B4228D3030C8B420DD3FF22090212BA030C8B4202D31212090265D0030B8B4219D300E0090AC30B8B42B6
:4059800001D3CB03C01A5241830B8B4201D38B03C01A5241430B8B4201D34B03C01A5241030B8B4201D30B03C01A5241C30A8B4201D3CB02C01A5241830A8B4201D38B0277
:4059C000C01A5241430A8B4201D34B02C01A5241030A8B4201D30B02C01A5241CDD2C3098B4201D3CB01C01A524183098B4201D38B01C01A524143098B4201D34B01C01AEC
:405A0000524103098B4201D30B01C01A5241C3088B4201D3CB00C01A524183088B4201D38B00C01A524143088B4201D34B00C01A5241411A00D20146524110467047FFE747
:405A400001B5002000F0F0F802BDC0460029F7D076E7704703460B437FD4002243088B4274D303098B425FD3030A8B4244D3030B8B4228D3030C8B420DD3FF22090212BABE
:405A8000030C8B4202D31212090265D0030B8B4219D300E0090AC30B8B4201D3CB03C01A5241830B8B4201D38B03C01A5241430B8B4201D34B03C01A5241030B8B4201D3EA
:405AC0000B03C01A5241C30A8B4201D3CB02C01A5241830A8B4201D38B02C01A5241430A8B4201D34B02C01A5241030A8B4201D30B02C01A5241CDD2C3098B4201D3CB01B3
:405B0000C01A524183098B4201D38B01C01A524143098B4201D34B01C01A524103098B4201D30B01C01A5241C3088B4201D3CB00C01A524183088B4201D38B00C01A52413E
:405B400043088B4201D34B00C01A5241411A00D201465241104670475DE0CA0F00D04942031000D34042534000229C4603098B422DD3030A8B4212D3FC22890112BA030AE4
:405B80008B420CD3890192118B4208D3890192118B4204D389013AD0921100E08909C3098B4201D3CB01C01A524183098B4201D38B01C01A524143098B4201D34B01C01A0B
:405BC000524103098B4201D30B01C01A5241C3088B4201D3CB00C01A524183088B4201D38B00C01A5241D9D243088B4201D34B00C01A5241411A00D20146634652415B10BA
:405C0000104601D34042002B00D54942704763465B1000D3404201B5002000F005F802BD0029F8D016E770477047C04670B5041E28D000F007FB9E231B1A962B0ADC9622A3
:405C4000D21A94406202520AD8B25202520AC005104370BD992B18DC9922D21A9440114A2240610704D00F210C40042C00D00432510103D50B4B1A409F231B1A9201520A87
:405C8000D8B2E2E700200022DFE705222500121AB921D5402200C91A8A40541EA2412C001443DCE7FFFFFFFBF0B55F4656464D464446F0B40D0399464E002B0B87B0070068
:405CC000924680469B46760DCC0F002E69D06D4B9E4235D05B468022DD001204430F13432B439B46C3009846674B00279C460023664401934A4615035000D20F53462D0B2F
:405D0000400D914600D176E05E4A90426CD080225B0F120413435C4AED0094461D4353460022DB00604449463618701C6140029017430F2F00D9AFE05448BF00C759BF46C7
:405D40005B461F4300D088E000239B469846023308270193CEE74946022A6AD0032A00D109E2012A00D0BBE111400022002300259046CCB200212D030A0D12052D0B1543C6
:405D8000434A1B0515401D436D00E4076D0825434046290007B03CBC90469946A246AB46F0BD034352D05B46002B00D18AE1584600F048FA03000B3B1C2B00DD7BE11D226B
:405DC000D31A3A0001005D46DA4008398D4013008F402B439B46B8462E4B00279C46002360444642019385E752462A432CD100250023022297E752462A4321D0002D00D1D0
:405E000054E1280000F01EFA03000B3B1C2B00DD46E11D21CB1A51460200D9405346083A954093400D431B4A944660444042002279E7012400220C40124B0025904699E76F
:405E40000025002301226EE703226CE700239B4698460133042701934CE703230C27019348E700238025984600242D03054B81E75D464346019A6FE75D4643462100019A0F
:405E80006AE7C046FF07000001FCFFFF90BA0100FFFF0F80F30300004246120C91461A0C9446424617044A461B041B0C5A43604690464A4642431000039262461C003F0CE4
:405EC0007A437C4342440192220C9246019A5244904506D98246802040028046C24450460390100C049048462404240C1204121905922A0C2D042D0C68432C008246484648
:405F00007C4350438146200C8046574357444744BA4503D9802040028046C144380C3F04B84648442404240C01900498A044404404905846000C814658460404200C824671
:405F4000070048465F434C464343604660436446834650464443380C8446E4186444A34203D980235B029C46E34448463F04230C3F0C2404E419574668436F4384464D46B6
:405F8000504655434243380C814662444A445B44944503D9802040028446654403983F04834604983F0C8446E344C345804140428246100484460198674484466744A34436
:405FC000BC46A345A4419946D44464428742BF41D4458041E144A04699459B417F424042C8440743120CBA18A045A4415F423B0064422343D71843467D19DB0D6D021D43CD
:406000005B465A02059B1A43531E9A415B46DB0D1A4343465B021343EA0107D501225C0813402343EA07029E13436D08574AB218002A4BDD580709D00F201840042805D018
:40604000181D98429B415B42ED180300E80104D54F4A15408022D200B2184E48824200DDE7E60124DB08680718436D02530580462D0B5B0D0C407DE6802259461203114247
:4060800008D0154206D115432D0398462D0B4C46414B6FE65D4615432D032D0B3E4B69E603005546283B9D400023BCE6504600F0C9F82030A8E60300283B9F400023BB465D
:4060C000984689E600F0BEF8203073E60124A61A382E07DD00220C4000230025904649E6029EA3E71F2E20DC20222C001800921BF040944093400443581E83411C43F54088
:40610000630709D00F232340042B05D023001C1D9C4292415242AD182B021FD5012400220C4001230025904624E61F202C004042821AD440202E1CD04022961BB5402B43F3
:40614000581E83410720234318400025002809D00F2200251A401C00042AD8D1230068076D022D0B0124DB08034398460C40002300E60025E3E780220124120315432D032A
:4061800098462D0B0C40044BF4E5C046FF030000FFFFFFFEFE070000FF0700004200120E511C4302C9B270B55D0AC40F012915DDE02189008C466D071B0B62440021280058
:4061C0000D0D2D052B431C4D52052B40520813435B00E4075B082343190070BD002A15D1002D1FD0280000F02DF80A281DDC0B232A001B1ADA4013000200153295400F4AF0
:406200001B03121A52051B0B520DD7E7002D06D080221B0B120313436D07094ACEE7084A0023CBE700220023C8E703000B3B9D402B000025E3E7C046FFFF0F80890300004E
:40624000FF0700001C2101231B04984201D3000C10391B0A984201D3000A08391B09984201D30009043902A2105C40187047C046040302020101010100000000000000002B
:40628000014B18687047C046BC1100200E4B70B500251E000D4CE41AA410A54204D0AB00F35898470135F8E715F060FC084B00251E00084CE41AA410A54204D0AB00F35849
:4062C00098470135F8E770BD78BB010078BB010078BB010080BB010030B50024A24208D0035D651C0C5DA34201D0181B02E02C00F4E7002030BD002310B59A4203D0CC5CF8
:40630000C4540133F9E710BD03008218934202D019700133FAE770470FB40B4B13B51C68002C05D0A369002B02D1200000F05EFA05AB049AA1682000019300F083FD16BCA6
:4063400008BC04B01847C046BC11002070B505000E00002804D08369002B01D100F046FAAB69AC68002B02D1280000F03FFA254B9C4201D16C6808E0234B9C4201D1AC6881
:4063800003E0224B9C4200D1EC68A3891B0702D52369002B11D12100280000F0BDF800280BD0012040422BE0013B0136A360002B08DB23685A1C226019703178A3680029C0
:4063C000F2D10BE0A269934201DB0A29F1D12200280000F049F8431CEFD1E2E7013BA360002B08DA22000A31280000F03DF8431CD7D00A2004E00A2023685A1C226018709C
:4064000070BDC046D8BA0100F8BA010018BB010010B5034B01001868FFF798FF10BDC046BC1100200EB410B59DB002A9029008610B48822488604861012040421FABC88174
:40644000084804CBA400006801938C8100F0D4FB0023029A13701DB010BC08BC03B01847FFFFFF7FBC110020F8B505000F001400002804D08369002B01D100F0B7F9234BAF
:406480009C4201D16C6808E0214B9C4201D1AC6803E0204B9C4200D1EC68A369A360A3891B070AD52369002B07D023682269FEB2981A636998420FDB08E02100280000F0FC
:4064C0002BF80028F1D0012040421DE02100280000F01EF90028F6D1A3680130013BA36023685A1C22601F706369984205D0A3893000DB0708D50A2E06D12100280000F046
:4065000007F90028DFD13000F8BDC046D8BA0100F8BA010018BB0100364B70B51D6806000C00002D05D0AB69002B02D1280000F05DF9314B9C4201D16C6808E02F4B9C427F
:4065400001D1AC6803E02E4B9C4200D1EC680C22A35E9AB2110723D4D10607D409220120326037321343A381404242E0530713D5616B002908D023004433994202D03000AF
:4065800000F02CFA002363632422A3899343A38100236360236923600822A3891343A3812369002B0BD1A0238022A1899B0092000B40934203D02100300000F0D1F901233A
:4065C000A289134005D00023A36063695B42A36103E0920700D46369A36000202369834207D10C22A35E1A0603D540221343A381013870BDBC110020D8BA0100F8BA0100B1
:4066000018BB0100F7B58A8905000C0013075AD44B68002B02DC0B6C002B19DDE76A002F16D000232E682B6080235B011A4001D0606D14E00123216A2800B847431C0ED171
:406640002B68002B0BD01D2B01D0162B02D12E6000205AE04022A3891343A38155E0A3895B0706D56368C01A636B002B01D0236CC01A00230200216A2800E76AB847A3899A
:40668000421C06D129681D293AD8204ACA40D20736D50022626022692260DB0405D5431C02D12B68002B00D16065616B2E600029CED023004433994202D0280000F08EF92D
:4066C0000020606321E00F69002FC1D00B680F60DB1B01930023920700D14B69A36003E0019B3F181B1A0193019B002BB0DD019B3A00216A2800A66AB0470028F0DCA3892B
:40670000402201201343A3814042FEBD010040200B6970B505000C00002B01D100201CE0002804D08369002B01D100F05FF80B4B9C4201D16C6808E0094B9C4201D1AC68F5
:4067400003E0084B9C4200D1EC680C22A35E002BE4D021002800FFF755FF70BDD8BA0100F8BA010018BB010010B5024900F0B0F810BDC04611670000002310B504000360B6
:406780004360836081814366C281036143618361190008225C30FFF7B7FD054B24626362044BA362044BE362044B236310BDC046C1730000E9730000217400004D740000EF
:4067C00070B568254B1E5D430E002900743100F051F9041E08D000212A00016046600C30A0606832FFF790FD200070BD836913B50400002B28D18364C3640365134B144AC8
:406800001B6882620193984201D101238361200000F020F86060200000F01CF8A060200000F018F80022E06004216068FFF7A4FF01220921A068FFF79FFF02221221E0680D
:40684000FFF79AFF0123A36113BDC046D4BA010069670000F8B51D4B06001D68AB69002B02D12800FFF7C2FF4835AC686B68013B05D40C22A75E002F10D06834F7E72B68D3
:40688000002B01D02D68F0E704213000FFF798FF28600028F6D10C23336016E0012320005B42E3810233A38167662760A760676027616761A7615C3008223900FFF724FD41
:4068C00020006763A763A764E764F8BDD4BA0100F7B504000700002601914834002C16D06368A5680093009B013B00930DD4AB89012B08D90E22AB5E013304D02900380074
:40690000019B984706436835EDE72468E6E73000FEBD000070B50E001D000E23C95E90B01400002906DA00232B60B3891B060FD540230FE001AA00F0B5FD0028F3DBF02342
:40694000029A1B021340054A9B185A4253412B608023DB000020236010B070BD00E0FFFFF7B502268B8905000C00334210D101AB6A46FFF7CFFF00990700280000F07AF8C9
:4069800000280CD10C22A35E9A0523D43343A3812300473323602361012363611AE080220D4BAB62A38920601343A381009B20616361019B002B0AD00E23E15E280000F0B7
:4069C00083FD002803D00122A3891343A381A3891F43A781F7BDC0466967000070B50500002944D00C1F2368002B00DAE418280000F0B0FD1E4A13681100002B02D163607B
:406A0000146031E0A3420DD92268A018834203D118685B688218226063600C6024E0A24203D813005A68002AF9D11E689819A0420BD12168711858181960824214D1106800
:406A40005268411819605A600EE0A04202D90C232B6009E021686018824203D1106852684118216062605C60280000F074FD70BD80230020032370B5CD1C9D43083506008F
:406A80000C2D01D20C2501E0002D01DBA94202D90C23336048E0300000F05CFD234B1C681A002100002913D00B685B1B0DD40B2B02D90B60CC181EE08C4202D16368136046
:406AC0001AE04B6863600C0016E00C004968E9E7174C2368002B03D1300000F05FFC20602900300000F05AFC431C18D00323C41C9C43A0420DD12560300000F02CFD200036
:406B000007220B30231D9043C31A0ED05A42E2500BE0211A300000F041FC431CEBD10C233000336000F017FD002070BD802300207C230020F0B58E6885B007000C0003927A
:406B400001939E4243D890238A89DB001A423ED003250969236801985B1A029363695D43EB0F5D19029B6D1001331B18AB4200D91D00530510D529003800FFF77BFF061E41
:406B800014D0029A2169FFF7B6FBA289194B134080221343A38112E02A00380000F0DCFC061E0CD121693800FFF718FF0C23402201203B60A38940421343A38117E0029B31
:406BC0002661F61826606561019EED1AA560019BB34200D21E0032000399206800F0A5FC0020A3689B1BA36023689E19266005B0F0BDC0467FFBFFFFF0B59FB002900593F7
:406C00008B890F0016001B0610D50B69002B0DD14021FFF72FFF38603861002804D10C23029A01381360D8E040237B61002306AD6B6120336B761033AB7634002378002B43
:406C400003D1A31B049312D003E0252BF9D00134F4E7A31B320039000298FFF76BFF431C00D1B4E06A69049B944663446B612378002B00D1ABE00122002352426A6002A9E6
:406C80005432521801342B60EB60AB601370AB65534E21780522300000F03CFC002807D00123801B83402A68013413432B60EFE72B68DA0604D55322202102A8121811702C
:406CC0001A0704D553222B2102A81218117022782A2A03D0099B00200A210EE0059A111D12680591002A01DB099204E05242EA60022213432B6001340BE02278303A092A4A
:406D000004D84B4301349B180120F6E7002800D0099323782E2B1ED163782A2B0AD1059B02341A1D1B680592002B01DA01235B42079310E000230A201A0001346B60217809
:406D40003039092904D84243013452180123F6E7002B00D00792234E21780322300000F0D9FB002806D04023801B83402A68013413432B60217806221B48661C297600F024
:406D8000C9FB002812D0194B002B06D10722059B073393430833059314E005AB00933A00134B2900029800E000BF07E005AB00933A000F4B2900029800F0CEF90390039B59
:406DC000013304D06B69039A9B186B6135E7BB890B985B0601D5012040421FB0F0BDC04638BB01003EBB010042BB010000000000356B0000936810B5013B9360002B05DAB7
:406E00009469A34208DBCBB20A2B05D01368581C10601970C8B201E0FFF726FB10BDF8B506000F001400D518AC4208D021783A003000FFF7DFFF0134431CF5D100E0002025
:406E4000F8BD0000F0B59FB006000F0002920593002804D08369002B01D1FFF7C7FC7F4B9F4201D1776808E07D4B9F4201D1B76803E07C4B9F4200D1F768BB891B070AD5AC
:406E80003B69002B07D0002306AD6B6120336B761033AB763DE039003000FFF73DFB0028F1D001204042D6E0059A111D12680591002A00DA7FE00992013423782E2B00D127
:406EC0008DE021780322684800F024FB002807D0654B2A68C01A4023834013432B6001342178631C062261480293297600F012FB002800D19DE05E4B002B00D090E0072284
:406F0000059B07339343083305936B69039A9B186B61029C2378002B04D1029BE31A049312D003E0252BF8D00134F3E7049B029A39003000FFF773FF431C00D186E06A6913
:406F4000049B944663446B612378002B7ED00122002352426A6002A95432521801342B60EB60AB601370AB6521780522414800F0D1FA002808D03F4B2A68C01A0123834048
:406F800013432B600134EFE72B68DA0604D55322202102A8121811701A0704D553222B2102A81218117022782A2A00D17CE7099B00200A2105E05242EA60022213432B60A5
:406FC0007AE72278303A092A04D84B4301349B180120F6E7002800D16FE709936DE763782A2B0AD1059B02341A1D1B680592002B01DA01235B42079363E700230A201A0026
:4070000001346B6021783039092904D84243013452180123F6E7002B00D152E7079250E705AB00933A00144B2900300000E000BF07E005AB00933A000F4B2900300000F03B
:407040008BF80390039B013300D05EE7BB895B0600D526E70B981FB0F0BDC046D8BA0100F8BA010018BB01003EBB010042BB01000000000038BB01001F6E0000F7B5170011
:4070800001938A680B6900900C00934200DA130022003B6043321278002A01D001333B6023689B0602D53B6802333B60062523681D401ED0230043331B785A1E9341226879
:4070C00092061CD53020E1184331087021005A1C45310978A2184332023311700FE022000123193201990098089EB047431C0ED00135E3683A689B1A9D42F0DBDAE722006E
:40710000019943320098089DA847431C02D10120404220E006232068E1683A6803400025042B03D18D1AEB43DB171D40A3682269934201DD9B1AED180027BD420AD02200EF
:4071400001231A3201990098089EB047431CDED00137F2E70020FEBDF0B58BB006920A0043320793059004920A7E0C00109B6E2A00D1ABE011D8632A22D009D8002A00D1A4
:40718000B5E0582A00D0C5E045310A70814A4FE0642A1DD0692A1BD0BCE0732A00D1AAE009D86F2A29D0702A00D0B3E0202209680A43226037E0752A1FD0782A33D0A9E007
:4071C0000E001A684236111D196013683370A4E021681A68080606D4490604D5111D19600023D55E02E0111D19601568002D3BDA2D23049A6D42137036E021681A6808068F
:4072000006D4490604D51568111D1960ADB202E0111D196015685F4B227E039308276F2A1DD00A271BE022007821453211705A4A19680392081D226818600D68100602D40D
